:100000000C942A000C9447000C9447000C94470071
:100010000C9447000C9447000C9447000C94470044
:100020000C9447000C9447000C9447000C94470034
:100030000C9447000C9447000C9447000C94470024
:100040000C9447000C9447000C9447000C94470014
:100050000C94470011241FBECFE5D8E0DEBFCDBF12
:1000600014E0A0E6B0E0E6E4F8E502C005900D92E9
:10007000A835B107D9F714E0A8E5B4E001C01D9296
:10008000A539B107E1F70E94002B0C94212C0C94A8
:100090000000EF92FF920F931F937B018C0120E0F1
:1000A00030E040E05FE40E94F50388238CF0C80153
:1000B000B70120E030E040E05FE40E94C1010E940F
:1000C000B3049B01AC01205030404040504806C072
:1000D000C801B7010E94B3049B01AC01B901CA0178
:1000E0001F910F91FF90EF900895A0E0B0E0EBE733
:1000F000F0E00C94D32BDC012B01FA019C9192309F
:1001000008F439C1EB018881823008F433C194309E
:1001100069F4843009F02FC111969C91119789815F
:10012000981709F428C1A6E3B1E025C1843009F489
:1001300021C18230A9F4923009F01DC19A01AD01AC
:1001400088E0EA010990AE01E90109929E0181501F
:10015000C1F7E201898111969C918923818308C1AD
:10016000923009F407C112962D903C901397EB0141
:100170008A819B811496AD90BD90CD90DC901797AD
:10018000EC80FD800E811F819101281B390BB90184
:1001900037FF04C066277727621B730B6032710537
:1001A0000CF061C0121613066CF537014801062EDB
:1001B00004C096948794779467940A94D2F721E0C8
:1001C00030E040E050E004C0220F331F441F551FB1
:1001D0006A95D2F721503040404050402E213F21B7
:1001E00040235123211531054105510521F021E01E
:1001F00030E040E050E079018A01E628F72808293C
:1002000019293CC0232BD1F1260E371E350146019A
:10021000062E04C096948794779467940A94D2F734
:1002200021E030E040E050E004C0220F331F441FC3
:10023000551F6A95D2F721503040404050402A2146
:100240003B214C215D21211531054105510521F04E
:1002500021E030E040E050E059016A01A628B728CB
:10026000C828D9280BC0821593052CF01C01AA249C
:10027000BB24650103C0EE24FF24870111969C91E5
:10028000D20111968C91981709F445C0992339F041
:10029000A80197012A193B094C095D0906C0A6016E
:1002A00095012E193F09400B510B57FD08C01182D3
:1002B0003382228224833583468357831DC081E0A5
:1002C00081833382228288279927DC01821B930B4A
:1002D000A40BB50B84839583A683B7830DC0220F2F
:1002E000331F441F551F24833583468357838281E0
:1002F000938101979383828324813581468157813D
:10030000DA01C9010197A109B1098F5F9F4FAF4F72
:10031000BF4328F30BC0918333822282EA0CFB1C7B
:100320000C1D1D1DE482F5820683178383E0808304
:10033000248135814681578157FF1AC0C901AA27F8
:1003400097FDA095BA2F81709070A070B0705695EF
:10035000479537952795822B932BA42BB52B848318
:100360009583A683B7838281938101969383828349
:10037000DF0101C0D201CD01CDB7DEB7E2E10C94BF
:10038000EF2BA0E2B0E0E7ECF1E00C94DF2B698307
:100390007A838B839C832D833E834F835887E9E048
:1003A000EE2EF12CEC0EFD1ECE010196B7010E943F
:1003B000A4068E010F5E1F4FCE010596B8010E9464
:1003C000A4068A8991E089278A8BC701B801AE010A
:1003D000475E5F4F0E9475000E94CF05A096E6E041
:1003E0000C94FB2BA0E2B0E0E8EFF1E00C94DF2BE3
:1003F00069837A838B839C832D833E834F835887C5
:10040000F9E0EF2EF12CEC0EFD1ECE010196B701A6
:100410000E94A4068E010F5E1F4FCE010596B80103
:100420000E94A406C701B801AE01475E5F4F0E945B
:1004300075000E94CF05A096E6E00C94FB2BA0E28D
:10044000B0E0E5E2F2E00C94D32B69837A838B83EE
:100450009C832D833E834F835887CE010196BE0136
:10046000675F7F4F0E94A406CE010596BE016F5EB6
:100470007F4F0E94A4069985923088F08989823046
:10048000C8F0943019F4823051F404C0843029F457
:10049000923081F486E391E0C6C0923049F420E0C6
:1004A0009A858A89981321E02A87CE010996BBC0D4
:1004B000823049F420E09A858A89981321E02A8BBA
:1004C000CE014196B0C02D843E844F8458886D88FB
:1004D0007E888F88988CEE24FF248701AA24BB2471
:1004E000650140E050E060E070E0E0E0F0E0C10174
:1004F00081709070892BE9F0E60CF71C081D191D1E
:100500009A01AB012A0D3B1D4C1D5D1D80E090E062
:10051000A0E0B0E0E614F7040805190520F481E036
:1005200090E0A0E0B0E0BA01A901480F591F6A1F8E
:100530007B1FAA0CBB1CCC1CDD1C97FE08C081E0F5
:1005400090E0A0E0B0E0A82AB92ACA2ADB2A3196B6
:10055000E032F10549F0660C771C881C991C569412
:10056000479437942794C3CFFA85EA892B893C892D
:100570008B859C85280F391F2E5F3F4F17C0CA01FE
:1005800081709070892B61F016950795F794E79428
:1005900080E090E0A0E0B0E8E82AF92A0A2B1B2BC3
:1005A00076956795579547952F5F3F4F77FDE7CF36
:1005B0000CC0440F551F661F771F17FD4160EE0CDE
:1005C000FF1C001F111F21503040403090E05907A0
:1005D00090E0690790E4790760F32B8F3C8FDB0193
:1005E000CA018F779070A070B07080349105A1051A
:1005F000B10561F447FD0AC0E114F10401051105DC
:1006000029F0405C5F4F6F4F7F4F40781A8EFE1786
:1006100011F081E08A8F4D8F5E8F6F8F78A383E01A
:10062000898FCE0149960E94CF05A096E2E10C94F5
:10063000EF2BA8E1B0E0EFE1F3E00C94DB2B698352
:100640007A838B839C832D833E834F835887B9E0C5
:10065000EB2EF12CEC0EFD1ECE010196B7010E948F
:10066000A4068E010F5E1F4FCE010596B8010E94B1
:10067000A4062985223008F47EC03989323010F46E
:10068000B8017CC08A859A8989278A87243011F02D
:10069000223031F4231709F06EC066E371E06EC0BA
:1006A000343039F41D861E861F86188A1C861B86E8
:1006B00004C0323021F484E08987B7015FC02B8504
:1006C0003C858B899C89281B390B3C872B87ED84C3
:1006D000FE840F851889AD88BE88CF88D88CEA142F
:1006E000FB040C051D0540F4EE0CFF1C001F111F40
:1006F000215030403C872B8720E030E040E050E044
:1007000080E090E0A0E0B0E460E070E0EA14FB0478
:100710000C051D0540F0282B392B4A2B5B2BEA18C2
:10072000FB080C091D09B695A79597958795EE0CC2
:10073000FF1C001F111F6F5F7F4F6F31710531F775
:10074000DA01C9018F779070A070B0708034910584
:10075000A105B10561F427FD0AC0E114F10401050A
:10076000110529F0205C3F4F4F4F5F4F20782D87B8
:100770003E874F87588BBE01675F7F4FCB010E943A
:10078000CF056896EAE00C94F72BA8E1B0E0EBEC1B
:10079000F3E00C94DF2B69837A838B839C832D8316
:1007A0003E834F83588789E0E82EF12CEC0EFD1E26
:1007B000CE010196B7010E94A4068E010F5E1F4F65
:1007C000CE010596B8010E94A4068985823040F0CA
:1007D0008989823028F0C701B8010E941C0701C036
:1007E0008FEF6896E6E00C94FB2BA8E1B0E0EBEF0E
:1007F000F3E00C94DF2B69837A838B839C832D83B6
:100800003E834F83588789E0E82EF12CEC0EFD1EC5
:10081000CE010196B7010E94A4068E010F5E1F4F04
:10082000CE010596B8010E94A4068985823040F069
:100830008989823028F0C701B8010E941C0701C0D5
:100840008FEF6896E6E00C94FB2BA8E1B0E0EBE2BA
:10085000F4E00C94DF2B69837A838B839C832D8354
:100860003E834F83588789E0E82EF12CEC0EFD1E65
:10087000CE010196B7010E94A4068E010F5E1F4FA4
:10088000CE010596B8010E94A4068985823040F009
:100890008989823028F0C701B8010E941C0701C075
:1008A00081E06896E6E00C94FB2BA8E0B0E0EBE575
:1008B000F4E00C94DC2B9B01AC0183E08983DA012A
:1008C000C9018827B7FD83959927AA27BB27B82E8A
:1008D000211531054105510519F482E089833AC09B
:1008E0008823A9F0203080E0380780E0480780E8BE
:1008F000580729F460E070E080E09FEC30C0EE24FF
:10090000FF248701E21AF30A040B150B02C07901D8
:100910008A018EE1C82ED12CDC82CB82ED82FE8250
:100920000F831887C801B7010E9480050197181628
:10093000190684F4082E04C0EE0CFF1C001F111FC2
:100940000A94D2F7ED82FE820F831887C81AD90A5B
:10095000DC82CB82BA82CE0101960E94CF05289616
:10096000E9E00C94F82BACE0B0E0E9EBF4E00C9497
:10097000E32B69837A838B839C83CE010196BE012E
:100980006B5F7F4F0E94A4068D81823061F18230BF
:1009900050F1843021F48E81882351F12EC02F81B3
:1009A000388537FD20C06E812F3131051CF066235C
:1009B000F9F023C08EE190E0821B930B29853A85E4
:1009C0004B855C8504C056954795379527958A9544
:1009D000D2F76623B1F050954095309521953F4F61
:1009E0004F4F5F4F0EC020E030E040E050E009C0C4
:1009F0002FEF3FEF4FEF5FE704C020E030E040E033
:100A000050E8B901CA012C96E2E00C94FF2BA8E053
:100A1000B0E0EDE0F5E00C94DB2B7B018C0161157F
:100A200071058105910519F482E0898360C083E036
:100A300089838EE1C82ED12CDC82CB82ED82FE82AE
:100A40000F831887C801B7010E948005FC01319708
:100A5000F7FF3BC0222733272E1B3F0B57016801AE
:100A6000022E04C0D694C794B794A7940A94D2F7E0
:100A700040E050E060E070E081E090E0A0E0B0E0B5
:100A800004C0880F991FAA1FBB1F2A95D2F7019790
:100A9000A109B1098E219F21A023B1230097A105AF
:100AA000B10521F041E050E060E070E04A295B29A7
:100AB0006C297D294D835E836F8378878EE190E07A
:100AC0008E1B9F0B9C838B8312C0309781F00E2E60
:100AD00004C0EE0CFF1C001F111F0A94D2F7ED8218
:100AE000FE820F831887CE1ADF0ADC82CB821A823D
:100AF000CE0101960E94CF052896EAE00C94F72BD0
:100B0000EF92FF920F931F937B018C0180E0E81618
:100B100080E0F80681E0080780E0180788F48FEF8E
:100B2000E816F1040105110531F028F088E090E0A5
:100B3000A0E0B0E017C080E090E0A0E0B0E012C01C
:100B400080E0E81680E0F80680E0080781E01807FA
:100B500028F088E190E0A0E0B0E004C080E190E0FF
:100B6000A0E0B0E020E230E040E050E0281B390B8C
:100B70004A0B5B0B04C016950795F794E7948A958A
:100B8000D2F7F701E25CFE4F8081281B3109410951
:100B90005109C9011F910F91FF90EF900895DF92C5
:100BA000EF92FF920F931F93FC01E480F580068182
:100BB0001781D1808081823048F480E090E0A0E10C
:100BC000B0E0E82AF92A0A2B1B2BA5C0843009F4CF
:100BD0009FC0823021F4EE24FF24870105C0E11478
:100BE000F1040105110519F4E0E0F0E096C062811E
:100BF00073819FEF623879070CF05BC022E83FEF0A
:100C0000261B370B2A3131052CF020E030E040E084
:100C100050E02AC0B801A701022E04C0769567955E
:100C2000579547950A94D2F781E090E0A0E0B0E0B4
:100C300004C0880F991FAA1FBB1F2A95D2F70197DE
:100C4000A109B1098E219F21A023B1230097A105FD
:100C5000B10521F081E090E0A0E0B0E09A01AB01A5
:100C6000282B392B4A2B5B2BDA01C9018F77907027
:100C7000A070B07080349105A105B10539F427FF4B
:100C800009C0205C3F4F4F4F5F4F04C0215C3F4F76
:100C90004F4F5F4FE0E0F0E02030A0E03A07A0E0E7
:100CA0004A07A0E45A0710F0E1E0F0E079018A0178
:100CB00027C06038710564F5FB01E158FF4FD8018A
:100CC000C7018F779070A070B07080349105A10536
:100CD000B10539F4E7FE0DC080E490E0A0E0B0E09B
:100CE00004C08FE390E0A0E0B0E0E80EF91E0A1F18
:100CF0001B1F17FF05C016950795F794E7943196CB
:100D000087E016950795F794E7948A95D1F705C083
:100D1000EE24FF248701EFEFF0E06E2F6795662742
:100D20006795902F9F77D794DD24D7948E2F869543
:100D3000492F462B582F5D29B701CA011F910F91EA
:100D4000FF90EF90DF900895FC01DB01408151811D
:100D50002281622F6F7770E0221F2227221F93814A
:100D6000892F880F822B282F30E0991F9927991FF0
:100D700011969C93119721153105A9F5411551053F
:100D80006105710511F482E037C082E89FEF139688
:100D90009C938E9312979A01AB0167E0220F331F49
:100DA000441F551F6A95D1F783E08C930DC0220F25
:100DB000331F441F551F12968D919C9113970197D5
:100DC00013969C938E931297203080E0380780E032
:100DD000480780E4580758F314962D933D934D939C
:100DE0005C93179708952F3F310579F4411551050C
:100DF0006105710519F484E08C93089564FF03C0C4
:100E000081E08C9312C01C9210C02F573040139673
:100E10003C932E93129783E08C9387E0440F551FE9
:100E2000661F771F8A95D1F7706414964D935D9372
:100E30006D937C93179708951F93DC01FB019C91A0
:100E4000923008F447C08081823008F443C0943067
:100E500051F411961C91843099F58181682F70E0CE
:100E6000611B71093FC0843021F0923031F482302F
:100E7000B9F18181882389F12DC011961C911197B8
:100E80008230F1F081811817D9F412962D913C919E
:100E90001397828193818217930794F0281739075B
:100EA000BCF014968D919D910D90BC91A02D248144
:100EB000358146815781281739074A075B0718F49F
:100EC000112341F00AC082179307A407B50740F425
:100ED000112319F061E070E005C06FEF7FEF02C0F1
:100EE00060E070E0CB011F910895DF93CF9300D0B5
:100EF0000F92CDB7DEB79B838A831982EA81FB818B
:100F000082810E94BA078983EA81FB8183810E94E2
:100F10000D088983EA81FB818381813021F481E09E
:100F20008093580402C010925804EA81FB818481A6
:100F30000E9496088983EA81FB8185810E94CF08FF
:100F40008983EA81FB8181810E9401098983EA8189
:100F5000FB8186810E9423098983EA81FB81878145
:100F60000E946408898389810F900F900F90CF9120
:100F7000DF910895DF93CF9300D000D0CDB7DEB7D7
:100F800089838981282F30E03C832B838B819C814E
:100F900081309105C1F02B813C812230310511F166
:100FA0008B819C81009769F5A7E2B0E0E7E2F0E071
:100FB00080818F778C93A7E2B0E0E7E2F0E0808158
:100FC0008F7B8C9320C0A7E2B0E0E7E2F0E0808165
:100FD0008F778C93A7E2B0E0E7E2F0E08081806455
:100FE0008C9311C0A7E2B0E0E7E2F0E08081806876
:100FF0008C93A7E2B0E0E7E2F0E0808180648C931C
:1010000002C01A8202C091E09A838A810F900F90E9
:101010000F900F90CF91DF910895DF93CF9300D081
:1010200000D0CDB7DEB789838981282F30E03C839B
:101030002B838B819C81009731F02B813C81213067
:10104000310549F010C0A7E2B0E0E7E2F0E08081AE
:1010500080628C930AC0A7E2B0E0E7E2F0E0808112
:101060008F7D8C9302C01A8202C031E03A838A815C
:101070000F900F900F900F90CF91DF910895DF9315
:10108000CF9300D0CDB7DEB789838981803210F04D
:101090001A8214C0898187708983A7E2B0E0E7E2F1
:1010A000F0E08081807E8C93A7E2B0E0E7E2F0E0A0
:1010B00090818981892B8C9381E08A838A810F902A
:1010C0000F90CF91DF910895DF93CF9300D000D0A0
:1010D000CDB7DEB789838981282F30E03C832B830D
:1010E0008B819C81009731F02B813C81213031052F
:1010F00049F010C0A6E2B0E0E6E2F0E080818F7730
:101100008C930AC0A6E2B0E0E6E2F0E0808180685D
:101110008C9302C01A8202C031E03A838A810F9018
:101120000F900F900F90CF91DF910895DF93CF93A1
:1011300000D000D0CDB7DEB789838981282F30E079
:101140003C832B838B819C81009731F02B813C81E8
:101150002130310549F010C0A6E2B0E0E6E2F0E04F
:101160008081877F8C930AC0A6E2B0E0E6E2F0E0DF
:10117000808188608C9302C01A8209C0A6E2B0E028
:10118000E6E2F0E0808180648C9331E03A838A81EA
:101190000F900F900F900F90CF91DF910895DF93F4
:1011A000CF9300D000D0CDB7DEB789838981282FB7
:1011B00030E03C832B838B819C81009731F02B8125
:1011C0003C812130310549F010C0A6E2B0E0E6E2F2
:1011D000F0E080818F7D8C930AC0A6E2B0E0E6E269
:1011E000F0E0808180628C9302C01A8202C031E0FC
:1011F0003A838A810F900F900F900F90CF91DF91DB
:101200000895DF93CF9300D0CDB7DEB7898389816E
:10121000883010F01A8211C0A6E2B0E0E6E2F0E0F9
:101220008081887F8C93A6E2B0E0E6E2F0E09081D6
:101230008981892B8C9381E08A838A810F900F901A
:10124000CF91DF910895DF93CF9300D0CDB7DEB774
:1012500089838981883010F01A821CC0A0E5B0E033
:10126000E0E5F0E080818F708C93A0E5B0E0E0E5F0
:10127000F0E08081482F8981282F30E084E090E0E1
:10128000022E02C0880F991F0A94E2F7842B8C93D8
:1012900081E08A838A810F900F90CF91DF9108952A
:1012A000DF93CF9300D000D0CDB7DEB78A837C83A5
:1012B0006B8319828A810E943F08898381E00E94A2
:1012C0006408A6E2B0E0E6E2F0E0808180648C93FE
:1012D000E6E2F0E0808182958F70882F90E0817047
:1012E00090700097A9F3A6E2B0E0E6E2F0E080811A
:1012F00080618C93E5E2F0E08081EB81FC8180836A
:1013000080E00E94640889810F900F900F900F90E9
:10131000CF91DF910895DF93CF93CDB7DEB72997B3
:101320000FB6F894DEBF0FBECDBF8E8378876F8374
:101330001A821B821C821D8219828E810E943F08A4
:101340008983A6E2B0E0E6E2F0E0808180648C93DD
:101350001DC08A819B81AC81BD810196A11DB11DFB
:101360008A839B83AC83BD838A819B81AC81BD8151
:10137000803127E2920720E0A20720E0B20731F493
:10138000EF81F88511821082198643C0E6E2F0E011
:1013900080818295869586958370882F90E08170F4
:1013A00090700097B1F2A6E2B0E0E6E2F0E0808152
:1013B00080618C9380915804813049F4E4E2F0E03C
:1013C00080819181EF81F8859183808320C0809115
:1013D00058048823D9F4E4E2F0E080818295869570
:1013E00086958370882F90E0EF81F88591838083C4
:1013F000E5E2F0E08081882F90E0880F991F880F48
:10140000991FEF81F8859183808301C019828981BA
:101410008987898529960FB6F894DEBF0FBECDBFA8
:10142000CF91DF910895DF93CF9300D000D0CDB757
:10143000DEB78A837C836B8319828B819C81909336
:101440005A04809359048A810E943F08898381E06D
:101450000E949608898381E00E9464088983A6E23D
:10146000B0E0E6E2F0E0808180648C9389810F90A7
:101470000F900F900F90CF91DF9108951F920F92D0
:101480000FB60F9211242F933F934F935F936F9357
:101490007F938F939F93AF93BF93EF93FF93DF93CC
:1014A000CF9300D0CDB7DEB780915804813051F48E
:1014B000E0915904F0915A04A4E2B0E08D919C911E
:1014C000099523C0809158048823F9F41A8219825F
:1014D000E4E2F0E080818295869586958370882F7E
:1014E00090E09A838983E5E2F0E08081882F90E0A4
:1014F000880F991F880F991F9A838983E091590457
:10150000F0915A0489819A810995A6E2B0E0E6E259
:10151000F0E0808180648C93A6E2B0E0E6E2F0E047
:10152000808180618C930F900F90CF91DF91FF911C
:10153000EF91BF91AF919F918F917F916F915F914B
:101540004F913F912F910F900FBE0F901F901895C4
:10155000DF93CF9300D00F92CDB7DEB789836A8334
:101560008981882F90E0009741F481E466E041E0B2
:101570000E94530D81E08B8301C01B828B810F90F1
:101580000F900F90CF91DF910895DF93CF930F923B
:10159000CDB7DEB7898389810E94FA0A813029F4A8
:1015A000898160E00E94DD0A04C0898161E00E94B7
:1015B000DD0A0F90CF91DF910895DF93CF9300D094
:1015C0000F92CDB7DEB789836A838981882F90E037
:1015D000009741F481E466E04A810E94370E81E081
:1015E0008B8301C01B828B810F900F900F90CF9146
:1015F000DF910895DF93CF9300D0CDB7DEB78A8314
:1016000019828A81882F90E0009729F481E466E0AE
:101610000E941B0F898389810F900F90CF91DF91DA
:101620000895DF93CF93CDB7DEB727970FB6F89421
:10163000DEBF0FBECDBF9E838D836F831C821B8256
:101640001A8219828D819E810E94182C9C838B8323
:101650008F81282F30E08D819E81B9010E948F18E3
:1016600027960FB6F894DEBF0FBECDBFCF91DF91A6
:101670000895DF93CF9300D000D0CDB7DEB79C8321
:101680008B8319828B819C8160E070E042E050E0A6
:101690000E940A2C0E940D158A838A818823D1F327
:1016A0008A818334F9F08981282F30E08B819C81F5
:1016B000FC01E20FF31F8A81808389818F5F898318
:1016C0008981282F30E08B819C81FC01E20FF31F80
:1016D000108281E060E00E94E11E8B819C810E946B
:1016E000C51ED8CF0F900F900F900F90CF91DF9124
:1016F0000895DF93CF9300D00F92CDB7DEB79B83D1
:101700008A830E940D15898303C00E940D15898369
:1017100089818823D1F3EA81FB818981808381E0FB
:1017200060E00E94E11E89810E94541B0F900F907F
:101730000F90CF91DF910895DF93CF9300D000D029
:101740000F92CDB7DEB79A8389836B834C832D8349
:101750000F900F900F900F900F90CF91DF91089501
:10176000DF93CF9300D000D00F92CDB7DEB79B832D
:101770008A83198219828AC18981282F30E04A819F
:101780005B81C901880F991F820F931FFA01E80F2F
:10179000F91F8081282F30E03D832C838C819D812F
:1017A0008234910509F46EC02C813D8123343105CA
:1017B00034F48C819D818134910571F064C12C8158
:1017C0003D812334310509F4B3C08C819D8184347B
:1017D000910509F403C157C18981282F30E04A815E
:1017E0005B81C901880F991F820F931F840F951F7A
:1017F000FC0132968081813011F5AAE3B0E0EAE382
:10180000F0E08081682F8981282F30E04A815B8158
:10181000C901880F991F820F931F840F951FFC0128
:1018200031968081282F30E081E090E0022E02C0C6
:10183000880F991F0A94E2F7862B8C9324C1AAE3A0
:10184000B0E0EAE3F0E08081682F8981282F30E062
:101850004A815B81C901880F991F820F931F840FF2
:10186000951FFC0131968081282F30E081E090E0C7
:10187000022E02C0880F991F0A94E2F780958623F2
:101880008C9301C18981282F30E04A815B81C90195
:10189000880F991F820F931F840F951FFC013296AA
:1018A0008081813011F5A7E3B0E0E7E3F0E08081CB
:1018B000682F8981282F30E04A815B81C901880F18
:1018C000991F820F931F840F951FFC013196808111
:1018D000282F30E081E090E0022E02C0880F991F8F
:1018E0000A94E2F7862B8C93CEC0A7E3B0E0E7E33F
:1018F000F0E08081682F8981282F30E04A815B8168
:10190000C901880F991F820F931F840F951FFC0137
:1019100031968081282F30E081E090E0022E02C0D5
:10192000880F991F0A94E2F7809586238C93ABC0A9
:101930008981282F30E04A815B81C901880F991F76
:10194000820F931F840F951FFC0132968081813096
:1019500011F5A4E3B0E0E4E3F0E08081682F898131
:10196000282F30E04A815B81C901880F991F820FBF
:10197000931F840F951FFC0131968081282F30E042
:1019800081E090E0022E02C0880F991F0A94E2F7CE
:10199000862B8C9378C0A4E3B0E0E4E3F0E0808190
:1019A000682F8981282F30E04A815B81C901880F27
:1019B000991F820F931F840F951FFC013196808120
:1019C000282F30E081E090E0022E02C0880F991F9E
:1019D0000A94E2F7809586238C9355C08981282F3D
:1019E00030E04A815B81C901880F991F820F931FE4
:1019F000840F951FFC0132968081813011F5A1E39F
:101A0000B0E0E1E3F0E08081682F8981282F30E0A9
:101A10004A815B81C901880F991F820F931F840F30
:101A2000951FFC0131968081282F30E081E090E005
:101A3000022E02C0880F991F0A94E2F7862B8C931E
:101A400022C0A1E3B0E0E1E3F0E08081682F89816A
:101A5000282F30E04A815B81C901880F991F820FCE
:101A6000931F840F951FFC0131968081282F30E051
:101A700081E090E0022E02C0880F991F0A94E2F7DD
:101A8000809586238C9389818F5F89838A819B814E
:101A9000009709F071CE0F900F900F900F900F905C
:101AA000CF91DF910895DF93CF9300D000D00F92B4
:101AB000CDB7DEB789836A834B838981282F30E0D5
:101AC0003D832C838C819D818234910509F444C02F
:101AD0002C813D812334310534F48C819D81813406
:101AE000910571F0BCC02C813D812334310509F48E
:101AF0005FC08C819D818434910509F485C0AFC09D
:101B00008B818130A1F4AAE3B0E0EAE3F0E08081C8
:101B1000482F8A81282F30E081E090E0022E02C019
:101B2000880F991F0A94E2F7842B8C9398C0AAE33C
:101B3000B0E0EAE3F0E08081482F8A81282F30E08E
:101B400081E090E0022E02C0880F991F0A94E2F70C
:101B5000809584238C9383C08B818130A1F4A7E38B
:101B6000B0E0E7E3F0E08081482F8A81282F30E061
:101B700081E090E0022E02C0880F991F0A94E2F7DC
:101B8000842B8C936CC0A7E3B0E0E7E3F0E08081A6
:101B9000482F8A81282F30E081E090E0022E02C099
:101BA000880F991F0A94E2F7809584238C9357C07D
:101BB0008B818130A1F4A4E3B0E0E4E3F0E0808124
:101BC000482F8A81282F30E081E090E0022E02C069
:101BD000880F991F0A94E2F7842B8C9340C0A4E3EA
:101BE000B0E0E4E3F0E08081482F8A81282F30E0E4
:101BF00081E090E0022E02C0880F991F0A94E2F75C
:101C0000809584238C932BC08B818130A1F4A1E338
:101C1000B0E0E1E3F0E08081482F8A81282F30E0B6
:101C200081E090E0022E02C0880F991F0A94E2F72B
:101C3000842B8C9314C0A1E3B0E0E1E3F0E0808159
:101C4000482F8A81282F30E081E090E0022E02C0E8
:101C5000880F991F0A94E2F7809584238C930F9044
:101C60000F900F900F900F90CF91DF910895DF9319
:101C7000CF9300D000D00F92CDB7DEB789836A83AF
:101C80004B838981282F30E03D832C838C819D817B
:101C90008234910509F444C02C813D8123343105FF
:101CA00034F48C819D818134910571F0BCC02C810C
:101CB0003D812334310509F45FC08C819D818434DA
:101CC000910509F485C0AFC08B818130A1F4ABE3ED
:101CD000B0E0EBE3F0E08081482F8A81282F30E0EC
:101CE00081E090E0022E02C0880F991F0A94E2F76B
:101CF000842B8C9398C0ABE3B0E0EBE3F0E0808101
:101D0000482F8A81282F30E081E090E0022E02C027
:101D1000880F991F0A94E2F7809584238C9383C0DF
:101D20008B818130A1F4A8E3B0E0E8E3F0E08081AA
:101D3000482F8A81282F30E081E090E0022E02C0F7
:101D4000880F991F0A94E2F7842B8C936CC0A8E348
:101D5000B0E0E8E3F0E08081482F8A81282F30E06E
:101D600081E090E0022E02C0880F991F0A94E2F7EA
:101D7000809584238C9357C08B818130A1F4A5E397
:101D8000B0E0E5E3F0E08081482F8A81282F30E041
:101D900081E090E0022E02C0880F991F0A94E2F7BA
:101DA000842B8C9340C0A5E3B0E0E5E3F0E08081B4
:101DB000482F8A81282F30E081E090E0022E02C077
:101DC000880F991F0A94E2F7809584238C932BC087
:101DD0008B818130A1F4A2E3B0E0E2E3F0E0808106
:101DE000482F8A81282F30E081E090E0022E02C047
:101DF000880F991F0A94E2F7842B8C9314C0A2E3F6
:101E0000B0E0E2E3F0E08081482F8A81282F30E0C3
:101E100081E090E0022E02C0880F991F0A94E2F739
:101E2000809584238C930F900F900F900F900F90BC
:101E3000CF91DF910895DF93CF9300D000D00F9220
:101E4000CDB7DEB78A836B8319828A81282F30E071
:101E50003D832C834C815D814234510541F18C815D
:101E60009D818334910534F42C813D8121343105E9
:101E700061F052C04C815D814334510551F18C8138
:101E80009D8184349105B9F147C0E9E3F0E0808198
:101E9000282F30E08B81882F90E0A90102C0559552
:101EA00047958A95E2F7CA018170898335C0E6E3D8
:101EB000F0E08081282F30E08B81882F90E0A9010D
:101EC00002C0559547958A95E2F7CA0181708983CA
:101ED00023C0E3E3F0E08081282F30E08B81882F5E
:101EE00090E0A90102C0559547958A95E2F7CA018D
:101EF0008170898311C0E0E3F0E08081282F30E019
:101F00008B81882F90E0A90102C0559547958A954D
:101F1000E2F7CA018170898389810F900F900F9039
:101F20000F900F90CF91DF910895DF93CF9300D062
:101F300000D00F92CDB7DEB78A836B838A816B8125
:101F40000E941B0F89838981282F30E03D832C83D9
:101F50008C819D81009759F02C813D812130310584
:101F600059F48A816B8140E00E94370E05C08A8156
:101F70006B8141E00E94370E898180958983898138
:101F80000F900F900F900F900F90CF91DF910895C9
:101F9000DF93CF9300D000D0CDB7DEB789836A83BB
:101FA0008981282F30E03C832B838B819C81823474
:101FB0009105D9F02B813C812334310534F48B8198
:101FC0009C818134910561F01EC02B813C812334BA
:101FD000310581F08B819C818434910581F013C09F
:101FE000EAE3F0E08A8180830EC0E7E3F0E08A81D3
:101FF000808309C0E4E3F0E08A81808304C0E1E3E8
:10200000F0E08A8180830F900F900F900F90CF9116
:10201000DF910895DF93CF9300D000D0CDB7DEB726
:1020200089836A838981282F30E03C832B838B81CD
:102030009C8182349105D9F02B813C812334310578
:1020400034F48B819C818134910561F01EC02B8119
:102050003C812334310581F08B819C81843491054E
:1020600081F013C0EAE3F0E08A8180830EC0E7E3E9
:10207000F0E08A81808309C0E4E3F0E08A81808314
:1020800004C0E1E3F0E08A8180830F900F900F900D
:102090000F90CF91DF910895DF93CF93CDB7DEB747
:1020A00080E060E00E94F11F81E060E00E94F11F8B
:1020B000CF91DF910895DF93CF93CDB7DEB7C756A9
:1020C000D0400FB6F894DEBF0FBECDBF1B8282E3B7
:1020D000FE013496DF01982F1D929A95E9F782E36D
:1020E000FE01F696DF01982F1D929A95E9F71A8264
:1020F000198280E060E00E94E11E80E690E00E948C
:10210000C51E1B822BC08B81882329F080E790E0BD
:1021100060E00E94110BCE0104960E94390BCE01A3
:1021200004960E94AA20813039F481E08A8380E0FD
:1021300060E00E94DD0A15C00E94741F80E060E02C
:102140000E94E11E8AE790E060E00E94110B80E0AF
:1021500061E00E94E11E8B818F5F8B838B818330D6
:1021600090F20E94741F8A81813049F585E890E0E1
:102170000E94C51E1B821FC08B81882329F080E727
:1021800090E060E00E94110BCE01C6960E94390BD0
:10219000CE01C6960E94E320813019F481E0898344
:1021A00012C00E94741F80E990E060E00E94110B51
:1021B0008B818F5F8B838B818330F0F204C080E052
:1021C00061E00E94DD0A8981882321F480E061E0DA
:1021D0000E94DD0A8981C959DF4F0FB6F894DEBF2E
:1021E0000FBECDBFCF91DF910895DF93CF93CDB7D1
:1021F000DEB76C970FB6F894DEBF0FBECDBF0E945E
:10220000741F80E090E0A0E0B0E08F87988BA98BEE
:10221000BA8B8AE0FE017396DF01982F1D929A9582
:10222000E9F70E9470270E945F27DC01CB018F87AE
:10223000988BA98BBA8B8F859889A989BA899E01B9
:102240002D5E3F4FBC01CD01A90122E00E94A128D3
:1022500080E060E00E94E11E8FE990E00E94C51ED0
:1022600081E060E00E94E11ECE0143960E94C51EFF
:1022700080E090E0AAE7B4E48B879C87AD87BE87B7
:102280006B857C858D859E8520E030E04AEF54E4A7
:102290000E941F02DC01CB018F839887A987BA8730
:1022A0006F81788589859A8520E030E040E85FE39A
:1022B0000E94250488232CF481E090E09E838D8386
:1022C0003FC06F81788589859A8520E03FEF4FE791
:1022D00057E40E94C50318164CF56B857C858D85E7
:1022E0009E8520E030E040E251E40E941F02DC01C4
:1022F000CB01BC01CD010E944900DC01CB019E83D2
:102300008D830FC088EC90E09C838B838B819C81B4
:102310000197F1F79C838B838D819E8101979E832A
:102320008D838D819E81009769F714C06F817885B8
:1023300089859A850E944900DC01CB019E838D83AB
:102340008D819E819A83898389819A810197F1F792
:102350009A8389836C960FB6F894DEBF0FBECDBF0B
:10236000CF91DF910895DF93CF93CDB7DEB760971C
:102370000FB6F894DEBF0FBECDBF188A1F86188A2D
:102380001F867DC08F85988960E00E94032680E0CB
:1023900090E0A8E4B2E48B879C87AD87BE876B850D
:1023A0007C858D859E8520E030E04AEF54E40E94D4
:1023B0001F02DC01CB018F839887A987BA876F81C1
:1023C000788589859A8520E030E040E85FE30E94C7
:1023D000250488232CF481E090E09E838D833FC008
:1023E0006F81788589859A8520E03FEF4FE757E434
:1023F0000E94C50318164CF56B857C858D859E85DE
:1024000020E030E040E251E40E941F02DC01CB01F9
:10241000BC01CD010E944900DC01CB019E838D836C
:102420000FC088EC90E09C838B838B819C8101970B
:10243000F1F79C838B838D819E8101979E838D8391
:102440008D819E81009769F714C06F817885898599
:102450009A850E944900DC01CB019E838D838D818A
:102460009E819A83898389819A810197F1F79A8362
:1024700089838F8598898C599F4F988B8F878F85FB
:10248000988929E0843C920708F47CCF60960FB6C7
:10249000F894DEBF0FBECDBFCF91DF910895DF93DB
:1024A000CF93CDB7DEB760970FB6F894DEBF0FBEFF
:1024B000CDBF188A1F8684EC99E0988B8F877DC0EA
:1024C0008F85988960E00E94032680E090E0A8E470
:1024D000B2E48B879C87AD87BE876B857C858D85B5
:1024E0009E8520E030E04AEF54E40E941F02DC01A8
:1024F000CB018F839887A987BA876F817885898573
:102500009A8520E030E040E85FE30E9425048823BC
:102510002CF481E090E09E838D833FC06F817885AD
:1025200089859A8520E03FEF4FE757E40E94C50375
:1025300018164CF56B857C858D859E8520E030E0F6
:1025400040E251E40E941F02DC01CB01BC01CD013D
:102550000E944900DC01CB019E838D830FC088EC73
:1025600090E09C838B838B819C810197F1F79C8306
:102570008B838D819E8101979E838D838D819E812A
:10258000009769F714C06F81788589859A850E94C4
:102590004900DC01CB019E838D838D819E819A83CE
:1025A000898389819A810197F1F79A8389838F853D
:1025B000988984569040988B8F878F85988900974B
:1025C00009F07ECF60960FB6F894DEBF0FBECDBF88
:1025D000CF91DF910895DF93CF930F92CDB7DEB700
:1025E000898380E069810E944B200F90CF91DF9119
:1025F0000895DF93CF93CDB7DEB76C970FB6F894FD
:10260000DEBF0FBECDBF80E060E00E94E11E8EEA1B
:1026100090E00E94C51E80E090E0AFE2B4E4898FB4
:102620009A8FAB8FBC8F698D7A8D8B8D9C8D20E0BE
:1026300030E04AEF54E40E941F02DC01CB018D8B95
:102640009E8BAF8BB88F6D897E898F89988D20E0A6
:1026500030E040E85FE30E94250488232CF481E009
:1026600090E09C8B8B8B3FC06D897E898F89988D84
:1026700020E03FEF4FE757E40E94C50318164CF5E2
:10268000698D7A8D8B8D9C8D20E030E040E251E4A5
:102690000E941F02DC01CB01BC01CD010E94490058
:1026A000DC01CB019C8B8B8B0FC088EC90E09A8B6C
:1026B000898B89899A890197F1F79A8B898B8B8904
:1026C0009C8901979C8B8B8B8B899C89009769F7E0
:1026D00014C06D897E898F89988D0E944900DC0124
:1026E000CB019C8B8B8B8B899C89988B8F878F855B
:1026F00098890197F1F7988B8F8780E060E00E94BE
:10270000E11E85EC90E00E94C51E81E060E00E9421
:10271000E11E85ED90E00E94C51E82E060E00E940F
:10272000E11E85EE90E00E94C51E83E060E00E94FD
:10273000E11E82EF90E00E94C51E80E090E0AAE7D3
:10274000B4E48B879C87AD87BE876B857C858D8540
:102750009E8520E030E04AEF54E40E941F02DC0135
:10276000CB018F839887A987BA876F817885898500
:102770009A8520E030E040E85FE30E94250488234A
:102780002CF481E090E09E838D833FC06F8178853B
:1027900089859A8520E03FEF4FE757E40E94C50303
:1027A00018164CF56B857C858D859E8520E030E084
:1027B00040E251E40E941F02DC01CB01BC01CD01CB
:1027C0000E944900DC01CB019E838D830FC088EC01
:1027D00090E09C838B838B819C810197F1F79C8394
:1027E0008B838D819E8101979E838D838D819E81B8
:1027F000009769F714C06F81788589859A850E9452
:102800004900DC01CB019E838D838D819E819A835B
:10281000898389819A810197F1F79A8389830E943C
:10282000741F6C960FB6F894DEBF0FBECDBFCF916C
:10283000DF910895DF93CF9300D000D000D0CDB7C3
:10284000DEB781E089831A820E94741F0E94F91208
:10285000CE0102960E94790B0E9494140E94741F6C
:102860008A81282F30E03E832D838D819E818133A4
:102870009105B9F02D813E81223331053CF48D81E3
:102880009E818033910509F43EC03FC02D813E8179
:102890002233310511F18D819E818333910581F1C0
:1028A00034C080916304882339F480E091E00E9471
:1028B000C51E0E94B31106C08DE091E00E94C51EA6
:1028C0000E944F12809163041C82882311F491E0CE
:1028D0009C832C81209363041CC0809164041B8220
:1028E000882311F431E03B838B81809364048091D1
:1028F00064040E94EB128AE191E00E94C51E09C0A7
:102900000E94F51006C0198204C089E291E00E947D
:10291000C51E1A82898126960FB6F894DEBF0FBEB7
:10292000CDBFCF91DF910895DF93CF93CDB7DEB7C1
:102930000E94D81F0E94CD1F22E08C3B920728F4F2
:1029400081E061E00E944B2004C081E060E00E94D1
:102950004B20CF91DF910895DF93CF9300D0CDB777
:10296000DEB71A8219821A821AC08A81882F90E0F3
:10297000880F991FFC01EA5BFD4F20818A81882F17
:1029800090E0880F991FFC01E95BFD4F9081822F39
:10299000692F41E00E94530D8A818F5F8A838A816B
:1029A000843018F3198231C08981882F90E0880F14
:1029B000991FFC01E25CFD4F20818981882F90E006
:1029C000880F991FFC01E15CFD4F9081822F692FD8
:1029D00040E00E94530D8981882F90E0880F991F55
:1029E000FC01E25CFD4F20818981882F90E0880FF7
:1029F000991FFC01E15CFD4F9081822F692F41E01E
:102A00000E94370E89818F5F89838981843060F2CB
:102A10000F900F90CF91DF910895DF93CF9300D067
:102A20000F92CDB7DEB71A8219821A827DC08A81D1
:102A3000882F90E0880F991FFC01EA5BFD4F2081F1
:102A40008A81882F90E0880F991FFC01E95BFD4F78
:102A50009081822F692F40E00E94370E198246C074
:102A60008981882F90E0880F991FFC01E25CFD4F5F
:102A700020818981882F90E0880F991FFC01E15CFB
:102A8000FD4F9081822F692F0E941B0F882359F5DB
:102A90008981882F90E0880F991FFC01E25CFD4F2F
:102AA00020818981882F90E0880F991FFC01E15CCB
:102AB000FD4F9081822F692F0E941B0F882341F3C5
:102AC0008A81482F50E08981282F30E0CA01880F81
:102AD000991F880F991F820F931FFC01E25BFD4F26
:102AE00080818B8326C089818F5F8983898184302F
:102AF00008F4B6CF8A81882F90E0880F991FFC01D7
:102B0000EA5BFD4F20818A81882F90E0880F991F12
:102B1000FC01E95BFD4F9081822F692F41E00E940B
:102B2000370E8A818F5F8A838A81843008F47FCF51
:102B30001B828B810F900F900F90CF91DF910895A2
:102B4000DF93CF9300D000D0CDB7DEB79B838A83CD
:102B50001982CE0101960E940F27882311F41C824E
:102B600006C08981EA81FB81808381E08C838C812E
:102B70000F900F900F900F90CF91DF910895DF93FA
:102B8000CF93CDB7DEB7CF91DF910895DF93CF9389
:102B9000CDB7DEB7E5970FB6F894DEBF0FBECDBF59
:102BA0009DAB8CAB1F8E1E8ECE0180962CA93DA9AD
:102BB000B9010E94112CCE0180960E94182C8D8F95
:102BC00080916504813021F48FE08093660402C017
:102BD000109266040E94741F80916504882309F096
:102BE0009EC097C080916604982F8F8D692F0E9498
:102BF000E11E8E8D282F30E0CE018096FC01E20F81
:102C0000F31F80810E94541B8E8D8F5F8E8F9E8D4F
:102C10008D8D891718F41E8E0E94741F8091660492
:102C20008F5F8093660480E090E0A8E4B3E4898F2E
:102C30009A8FAB8FBC8F698D7A8D8B8D9C8D20E0A8
:102C400030E04AEF54E40E941F02DC01CB018D8B7F
:102C50009E8BAF8BB88F6D897E898F89988D20E090
:102C600030E040E85FE30E94250488232CF481E0F3
:102C700090E09C8B8B8B3FC06D897E898F89988D6E
:102C800020E03FEF4FE757E40E94C50318164CF5CC
:102C9000698D7A8D8B8D9C8D20E030E040E251E48F
:102CA0000E941F02DC01CB01BC01CD010E94490042
:102CB000DC01CB019C8B8B8B0FC088EC90E09A8B56
:102CC000898B89899A890197F1F79A8B898B8B89EE
:102CD0009C8901979C8B8B8B8B899C89009769F7CA
:102CE00014C06D897E898F89988D0E944900DC010E
:102CF000CB019C8B8B8B8B899C89988B8F878F8545
:102D000098890197F1F7988B8F878F8D91E08927AC
:102D10008F8F8091660480310CF464CFA2C08091C3
:102D2000660481508093660497C080916604982F52
:102D30008F8D692F0E94E11E8E8D282F30E0CE01ED
:102D40008096FC01E20FF31F80810E94541B8E8D40
:102D50008F5F8E8F9E8D8D8D891718F41E8E0E9429
:102D6000741F8091660481508093660480E090E037
:102D7000A8E4B3E48B879C87AD87BE876B857C8591
:102D80008D859E8520E030E04AEF54E40E941F02CA
:102D9000DC01CB018F839887A987BA876F817885FB
:102DA00089859A8520E030E040E85FE30E942504B1
:102DB00088232CF481E090E09E838D833FC06F8157
:102DC000788589859A8520E03FEF4FE757E40E9498
:102DD000C50318164CF56B857C858D859E8520E096
:102DE00030E040E251E40E941F02DC01CB01BC0153
:102DF000CD010E944900DC01CB019E838D830FC071
:102E000088EC90E09C838B838B819C810197F1F708
:102E10009C838B838D819E8101979E838D838D8181
:102E20009E81009769F714C06F81788589859A859E
:102E30000E944900DC01CB019E838D838D819E81A0
:102E40009A83898389819A810197F1F79A8389838B
:102E50008F8D91E089278F8F8091660488230CF0F5
:102E600064CF8091650491E0892780936504E5969D
:102E70000FB6F894DEBF0FBECDBFCF91DF9108959E
:102E8000DF93CF93CDB7DEB76F970FB6F894DEBF61
:102E90000FBECDBF9F8F8E8F1D8E809167048130B6
:102EA00021F48FE08093680402C0109268040E94AD
:102EB000741F80916704882309F08FC088C00E9426
:102EC000741F80916804982F8D8D692F0E94E11ED8
:102ED0008E8D9F8D0E94C51E809168048F5F8093A8
:102EE000680480E090E0A0EAB1E4898F9A8FAB8F0C
:102EF000BC8F698D7A8D8B8D9C8D20E030E04AEF00
:102F000054E40E941F02DC01CB018D8B9E8BAF8BA2
:102F1000B88F6D897E898F89988D20E030E040E8F8
:102F20005FE30E94250488232CF481E090E09C8BD1
:102F30008B8B3FC06D897E898F89988D20E03FEF14
:102F40004FE757E40E94C50318164CF5698D7A8D3A
:102F50008B8D9C8D20E030E040E251E40E941F0206
:102F6000DC01CB01BC01CD010E944900DC01CB0199
:102F70009C8B8B8B0FC088EC90E09A8B898B898916
:102F80009A890197F1F79A8B898B8B899C89019794
:102F90009C8B8B8B8B899C89009769F714C06D89FA
:102FA0007E898F89988D0E944900DC01CB019C8B22
:102FB0008B8B8B899C89988B8F878F8598890197BC
:102FC000F1F7988B8F878D8D91E089278D8F809178
:102FD000680480310CF473CF93C0809168048150F1
:102FE0008093680488C00E94741F80916804982FA1
:102FF0008D8D692F0E94E11E8E8D9F8D0E94C51EB2
:103000008091680481508093680480E090E0A0EA99
:10301000B1E48B879C87AD87BE876B857C858D856A
:103020009E8520E030E04AEF54E40E941F02DC015C
:10303000CB018F839887A987BA876F817885898527
:103040009A8520E030E040E85FE30E942504882371
:103050002CF481E090E09E838D833FC06F81788562
:1030600089859A8520E03FEF4FE757E40E94C5032A
:1030700018164CF56B857C858D859E8520E030E0AB
:1030800040E251E40E941F02DC01CB01BC01CD01F2
:103090000E944900DC01CB019E838D830FC088EC28
:1030A00090E09C838B838B819C810197F1F79C83BB
:1030B0008B838D819E8101979E838D838D819E81DF
:1030C000009769F714C06F81788589859A850E9479
:1030D0004900DC01CB019E838D838D819E819A8383
:1030E000898389819A810197F1F79A8389838D8DEC
:1030F00091E089278D8F8091680418160CF473CFA6
:103100008091670491E08927809367046F960FB6DA
:10311000F894DEBF0FBECDBFCF91DF9108950F931E
:103120001F93DF93CF93CDB7DEB7C858D0400FB60B
:10313000F894DEBF0FBECDBFFE01EA57FF4F91836B
:103140008083FE01E857FF4F60838FE089A384E608
:10315000FE01B296DF01982F1D929A95E9F7FE01C4
:10316000EA57FF4F808191810E94182C88A31F8EFF
:103170001E8E1D8EA0C00E94741F99A1FE01E857EB
:10318000FF4F8081692F0E94E11E1F8E11C08F8D1D
:10319000282F30E0FE01EA57FF4F80819181FC012A
:1031A000E20FF31F80810E94541B8F8D8F5F8F8FE2
:1031B0008F8D282F30E0FE01EA57FF4F80819181EB
:1031C000FC01E20FF31F8081882309F789A1815058
:1031D00089A380E090E0A0EAB1E4898F9A8FAB8F59
:1031E000BC8F698D7A8D8B8D9C8D20E030E04AEF0D
:1031F00054E40E941F02DC01CB018D8B9E8BAF8BB0
:10320000B88F6D897E898F89988D20E030E040E805
:103210005FE30E94250488232CF481E090E09C8BDE
:103220008B8B3FC06D897E898F89988D20E03FEF21
:103230004FE757E40E94C50318164CF5698D7A8D47
:103240008B8D9C8D20E030E040E251E40E941F0213
:10325000DC01CB01BC01CD010E944900DC01CB01A6
:103260009C8B8B8B0FC088EC90E09A8B898B898923
:103270009A890197F1F79A8B898B8B899C890197A1
:103280009C8B8B8B8B899C89009769F714C06D8907
:103290007E898F89988D0E944900DC01CB019C8B2F
:1032A0008B8B8B899C89988B8F878F8598890197C9
:1032B000F1F7988B8F8789A188230CF05CCFCE0122
:1032C0008296FE01EA57FF4F20813181B9010E94A9
:1032D000112C1D8EBCC00E94741F1F8EA7C00E949F
:1032E000741F1E8E18C08E8D482F50E08E8D882F33
:1032F00090E09C012F5F3F4FCE018296FC01E20FD0
:10330000F31F2081CE018296FC01E40FF51F20837C
:103310008E8D8F5F8E8F8E8D282F30E0CE0182961E
:10332000FC01E20FF31F80818823E9F6FE01E857D4
:10333000FF4F808160E00E94E11ECE0182960E94D4
:10334000C51E80E090E0A0EAB1E48B879C87AD8742
:10335000BE876B857C858D859E8520E030E04AEFB9
:1033600054E40E941F02DC01CB018F839887A98758
:10337000BA876F81788589859A8520E030E040E8BA
:103380005FE30E94250488232CF481E090E09E8373
:103390008D833FC06F81788589859A8520E03FEFD6
:1033A0004FE757E40E94C50318164CF56B857C85E2
:1033B0008D859E8520E030E040E251E40E941F02AE
:1033C000DC01CB01BC01CD010E944900DC01CB0135
:1033D0009E838D830FC088EC90E09C838B838B81D0
:1033E0009C810197F1F79C838B838D819E8101974E
:1033F0009E838D838D819E81009769F714C06F81B4
:10340000788589859A850E944900DC01CB019E83DD
:103410008D838D819E819A83898389819A81019789
:10342000F1F79A8389838F8D8F5F8F8F8F8D282FF0
:1034300030E0CE018296FC01E20FF31F80818823E9
:1034400009F04DCF0E94741F8D8D8F5F8D8F8D8DF4
:10345000082F10E0CE0182960E94182C8017910749
:1034600008F039CFC857DF4F0FB6F894DEBF0FBE54
:10347000CDBFCF91DF911F910F910895DF93CF932F
:10348000CDB7DEB72D970FB6F894DEBF0FBECDBF18
:103490009A83898384E460E041E00E94530D84E4D0
:1034A00062E041E00E94530D84E461E041E00E944B
:1034B000530D84E461E041E00E94370E84E460E053
:1034C00040E00E94370EE981FA818081813061F508
:1034D00081E08093690483E460E041E00E94530D41
:1034E00083E461E041E00E94530D83E462E041E047
:1034F0000E94530D83E463E041E00E94530D83E496
:1035000064E041E00E94530D83E465E041E00E94E5
:10351000530D83E466E041E00E94530D83E467E0CD
:1035200041E00E94530D1EC0E981FA818081882309
:10353000B9F41092690483E464E041E00E94530D01
:1035400083E465E041E00E94530D83E466E041E0DE
:103550000E94530D83E467E041E00E94530D02C0D6
:103560001D866AC0E981FA818081813019F480E387
:103570008C8702C090E29C87E981FA818181813049
:1035800019F488E08B8701C01B869C858B85982B5E
:103590009A87E981FA818281813019F494E09987D0
:1035A00001C019868A859985892B0E94261BE9818D
:1035B000FA818381813019F48CE0888702C098E019
:1035C0009887E981FA818581813019F482E08F83BF
:1035D00001C01F8298858F81982B9E83E981FA8193
:1035E00084811D82813011F491E09D838E819D81C3
:1035F000892B0E94261B81E00E94261BE981FA810B
:103600008681813019F484E08C8302C096E09C832B
:10361000E981FA8187811B82813011F481E08B83FB
:103620008C819B81892B0E94261B84E461E040E011
:103630000E94370E81E08D878D852D960FB6F89408
:10364000DEBF0FBECDBFCF91DF910895DF93CF9343
:1036500000D0CDB7DEB7898384E462E040E00E9409
:10366000370E84E461E040E00E94370E80916904E7
:10367000813031F4898161E041E00E94851C0CC0F9
:1036800080916904882331F4898161E040E00E94DF
:10369000851C02C01A8202C081E08A838A810F9051
:1036A0000F90CF91DF910895DF93CF9300D0CDB7E6
:1036B000DEB7898384E462E041E00E94370E84E44F
:1036C00061E040E00E94370E80916904813031F45E
:1036D000898160E041E00E94851C0CC080916904F2
:1036E000882331F4898160E040E00E94851C02C09B
:1036F0001A8202C081E08A838A810F900F90CF9155
:10370000DF910895DF93CF93CDB7DEB72E970FB635
:10371000F894DEBF0FBECDBF8B877D876C871A8282
:10372000198284E462E041E00E94370E84E461E0A3
:1037300041E00E94370E80916904813009F067C032
:1037400083E460E00E941B0F8B8383E461E00E94AE
:103750001B0F8C8383E462E00E941B0F8D8383E444
:1037600063E00E941B0F8E8383E464E00E941B0FC2
:103770008F8383E465E00E941B0F888783E466E003
:103780000E941B0F898783E467E00E941B0F8A87D2
:10379000198239C08981282F30E0CE010396FC01BF
:1037A000E20FF31F8081882389F48981282F30E07C
:1037B00081E090E0022E02C0880F991F0A94E2F780
:1037C000982F90958A8189238A831AC08981282F0E
:1037D00030E0CE010396FC01E20FF31F80818130BF
:1037E00079F48981282F30E081E090E0022E02C038
:1037F000880F991F0A94E2F7982F8A81892B8A8370
:1038000089818F5F89838981873020F26EC08091A2
:103810006904882309F067C083E464E00E941B0FF9
:103820008B8383E465E00E941B0F8C8383E466E056
:103830000E941B0F8D8383E467E00E941B0F8E8321
:1038400083E464E00E941B0F8F8383E465E00E94A1
:103850001B0F888783E466E00E941B0F898783E43F
:1038600067E00E941B0F8A87198239C08981282F3F
:1038700030E0CE010396FC01E20FF31F8081882324
:1038800089F48981282F30E081E090E0022E02C087
:10389000880F991F0A94E2F7982F90958A818923BF
:1038A0008A831AC08981282F30E0CE010396FC015B
:1038B000E20FF31F8081813079F48981282F30E075
:1038C00081E090E0022E02C0880F991F0A94E2F76F
:1038D000982F8A81892B8A8389818F5F8983898147
:1038E000873020F202C01E8606C0EC85FD858A81E5
:1038F000808381E08E878E852E960FB6F894DEBF8A
:103900000FBECDBFCF91DF910895DF93CF9300D04D
:1039100000D0CDB7DEB789836A834B838B8181303A
:1039200009F054C08981982F917083E460E0492F99
:103930000E94370E89818695982F917083E461E00B
:10394000492F0E94370E898186958695982F917010
:1039500083E462E0492F0E94370E8981869586951F
:103960008695982F917083E463E0492F0E94370E6B
:10397000898182958F70982F917083E464E0492F3C
:103980000E94370E8981829586958770982F917055
:1039900083E465E0492F0E94370E898182958695E0
:1039A00086958370982F917083E466E0492F0E947A
:1039B000370E8981982F991F9927991F83E467E013
:1039C000492F0E94370E0E94C41DD4C08B818823CA
:1039D00009F0CEC0898182958F70982F917083E411
:1039E00064E0492F0E94370E898182958695877001
:1039F000982F917083E465E0492F0E94370E8981EA
:103A00008295869586958370982F917083E466E001
:103A1000492F0E94370E8981982F991F9927991F46
:103A200083E467E0492F0E94370E0E94C41D8981FC
:103A3000829586958770882F90E081709070982F7E
:103A400081E08927882309F06AC08981829586955B
:103A500086958370882F90E081709070009709F0B0
:103A60005EC0898188230CF45AC08A81813009F0B4
:103A700056C0898182958F70982F917083E464E09D
:103A8000492F0E94370E8981829586958770982FDD
:103A9000917083E465E0492F0E94370E89818295F9
:103AA000869586958370982F917083E466E0492F00
:103AB0000E94370E8981982F991F9927991F83E4B7
:103AC00067E0492F0E94370E0E94C41D8981982FFC
:103AD000917083E464E0492F0E94370E89818695B6
:103AE000982F917083E465E0492F0E94370E8981F9
:103AF00086958695982F917083E466E0492F0E9401
:103B0000370E8981869586958695982F917083E4E6
:103B100067E0492F0E94370E0E94C41D2BC0898187
:103B2000982F917083E464E0492F0E94370E8981B9
:103B30008695982F917083E465E0492F0E94370E97
:103B4000898186958695982F917083E466E0492F48
:103B50000E94370E8981869586958695982F91705B
:103B600083E467E0492F0E94370E0E94C41D02C003
:103B70001C8202C081E08C838C810F900F900F908B
:103B80000F90CF91DF910895DF93CF93CDB7DEB73C
:103B90006C970FB6F894DEBF0FBECDBF84E460E033
:103BA00041E00E94370E80E090E0A0E8BFE3898FFB
:103BB0009A8FAB8FBC8F698D7A8D8B8D9C8D20E019
:103BC00030E04AEF54E40E941F02DC01CB018D8BF0
:103BD0009E8BAF8BB88F6D897E898F89988D20E001
:103BE00030E040E85FE30E94250488232CF481E064
:103BF00090E09C8B8B8B3FC06D897E898F89988DDF
:103C000020E03FEF4FE757E40E94C50318164CF53C
:103C1000698D7A8D8B8D9C8D20E030E040E251E4FF
:103C20000E941F02DC01CB01BC01CD010E944900B2
:103C3000DC01CB019C8B8B8B0FC088EC90E09A8BC6
:103C4000898B89899A890197F1F79A8B898B8B895E
:103C50009C8901979C8B8B8B8B899C89009769F73A
:103C600014C06D897E898F89988D0E944900DC017E
:103C7000CB019C8B8B8B8B899C89988B8F878F85B5
:103C800098890197F1F7988B8F8784E460E040E092
:103C90000E94370E80E090E0A0E8BFE38B879C870E
:103CA000AD87BE876B857C858D859E8520E030E065
:103CB0004AEF54E40E941F02DC01CB018F839887F6
:103CC000A987BA876F81788589859A8520E030E059
:103CD00040E85FE30E94250488232CF481E090E013
:103CE0009E838D833FC06F81788589859A8520E08A
:103CF0003FEF4FE757E40E94C50318164CF56B855C
:103D00007C858D859E8520E030E040E251E40E9474
:103D10001F02DC01CB01BC01CD010E944900DC0186
:103D2000CB019E838D830FC088EC90E09C838B83B6
:103D30008B819C810197F1F79C838B838D819E8180
:103D400001979E838D838D819E81009769F714C0B2
:103D50006F81788589859A850E944900DC01CB01B5
:103D60009E838D838D819E819A83898389819A81A7
:103D70000197F1F79A8389836C960FB6F894DEBFAA
:103D80000FBECDBFCF91DF910895DF93CF9300D0C9
:103D9000CDB7DEB79A8389830AC0E981FA81808131
:103DA0000E94541B89819A8101969A838983E981B3
:103DB000FA818081882389F70F900F90CF91DF914E
:103DC0000895DF93CF9300D00F92CDB7DEB78983EC
:103DD0006A838981882329F48A8180580E94261B5E
:103DE0001AC08981813029F48A8180540E94261B5F
:103DF00012C08981823029F48A8180570E94261B53
:103E00000AC08981833029F48A8180530E94261B4D
:103E100002C01B8202C081E08B838B810F900F90C8
:103E20000F90CF91DF910895DF93CF93CDB7DEB799
:103E300064970FB6F894DEBF0FBECDBF698B7A8B47
:103E40008B8B9C8B80E1FE013196DF01982F1D92B8
:103E50009A95E9F789899A89AB89BC89BC01CD011A
:103E60009E012F5F3F4FA9010E94C827CE010196F6
:103E70000E94C51E64960FB6F894DEBF0FBECDBF7C
:103E8000CF91DF910895DF93CF93CDB7DEB76597DC
:103E90000FB6F894DEBF0FBECDBF698B7A8B8B8BCC
:103EA0009C8B4D8B80E1FE013196DF01982F1D9296
:103EB0009A95E9F789899A89AB89BC89BC01CD01BA
:103EC0009E012F5F3F4FA9012D890E94A128CE019D
:103ED00001960E94C51E65960FB6F894DEBF0FBE10
:103EE000CDBFCF91DF910895DF93CF93CDB7DEB7EC
:103EF00081E00E94261BCF91DF910895DF93CF933D
:103F0000CDB7DEB782E00E94261BCF91DF910895E6
:103F1000DF93CF9300D000D00F92CDB7DEB79B8355
:103F20008A836C838C81883010F01D8222C01982B4
:103F30008C81882F90E00896880F991F880F991F11
:103F4000880F991F0E94261B19820EC08981282F75
:103F500030E08A819B81FC01E20FF31F80810E9487
:103F6000541B89818F5F89838981883078F381E050
:103F70008D838D810F900F900F900F900F90CF91A8
:103F8000DF910895DF93CF93CDB7DEB710926B0426
:103F900010926A04CF91DF910895DF93CF93CDB74C
:103FA000DEB780916A0490916B04CF91DF91089500
:103FB000DF93CF9300D0CDB7DEB71A82198281E0AC
:103FC0009E012F5F3F4FB9010E948B0989819A8121
:103FD00090936B0480936A040F900F90CF91DF91C0
:103FE0000895DF93CF9300D00F92CDB7DEB78983CA
:103FF0006A838981823010F01B821DC08981882FDD
:1040000090E0880F991FFC01E25AFD4F20818981C1
:10401000882F90E0880F991FFC01E15AFD4F908195
:10402000822F692F41E00E94530D89816A810E948D
:104030004B2081E08B838B810F900F900F90CF915D
:10404000DF910895DF93CF9300D00F92CDB7DEB705
:104050008A838A81823010F01B8216C019828A817D
:104060009E012F5F3F4FB9010E94782089818130E6
:1040700029F48A8160E00E944B2004C08A8161E0BB
:104080000E944B2081E08B838B810F900F900F90CB
:10409000CF91DF910895DF93CF9300D00F92CDB7EA
:1040A000DEB789836A838981823010F01B8219C050
:1040B0008981882F90E0880F991FFC01E25AFD4FFB
:1040C00020818981882F90E0880F991FFC01E15A97
:1040D000FD4F9081822F692F4A810E94370E81E027
:1040E0008B838B810F900F900F90CF91DF9108956C
:1040F000DF93CF9300D000D00F92CDB7DEB78A8385
:104100007C836B838A81823010F01D821AC01982F1
:104110008A81882F90E0880F991FFC01E25AFD4F99
:1041200020818A81882F90E0880F991FFC01E15A35
:10413000FD4F9081822F692F0E941B0F898381E0A0
:104140008D838D810F900F900F900F900F90CF91D6
:10415000DF910895DF93CF9300D000D0CDB7DEB7C5
:104160009C838B831A821982198222C042E652E014
:104170008981282F30E082E390E0BC01269FC001B6
:10418000279F900D369F900D11249A01280F391FFB
:104190008B819C81B9010E94CE2A882331F48981C8
:1041A00080936C0481E08A8306C089818F5F898354
:1041B00089818530D8F28A810F900F900F900F90EF
:1041C000CF91DF910895DF93CF9300D00F92CDB7B9
:1041D000DEB79B838A8319824CE553E080916C049F
:1041E000282F30E082E390E0BC01269FC001279F8A
:1041F000900D369F900D11249A01280F391F8A8146
:104200009B81B9010E94CE2A882311F481E0898321
:1042100089810F900F900F90CF91DF910895DF93D8
:10422000CF9300D000D000D0CDB7DEB79B838A8378
:104230001982EA81FB818281EA81FB819081692F69
:104240000E9495228983EA81FB818281282F30E0B8
:104250003E832D838D819E81009731F02D813E819B
:104260002130310539F00CC084E465E041E00E9462
:10427000530D08C084E464E041E00E94530D02C085
:104280001C820EC0EA81FB8181810E945D238983AB
:10429000EA81FB8183810E945A21898339813C8391
:1042A0008C8126960FB6F894DEBF0FBECDBFCF919E
:1042B000DF910895DF93CF9300D000D0CDB7DEB764
:1042C00089838981282F30E03C832B838B819C81DB
:1042D0008330910509F481C02B813C812430310564
:1042E0008CF48B819C818130910509F43EC02B8137
:1042F0003C81223031050CF054C08B819C810097A9
:10430000D1F0EBC02B813C812530310509F49DC0F3
:104310008B819C81853091050CF47BC02B813C8185
:104320002630310509F4ADC08B819C818730910521
:1043300009F4BDC0D2C0AEE4B0E0EEE4F0E08081AC
:104340008E7F8C93AEE4B0E0EEE4F0E080818D7F70
:104350008C93AEE4B0E0EEE4F0E080818B7F8C9350
:1043600010926E0410926D04BAC0AEE4B0E0EEE4B8
:10437000F0E0808181608C93AEE4B0E0EEE4F0E0A8
:1043800080818D7F8C93AEE4B0E0EEE4F0E080813C
:104390008B7F8C9381E090E090936E0480936D040A
:1043A0009EC0AEE4B0E0EEE4F0E080818E7F8C93BE
:1043B000AEE4B0E0EEE4F0E0808182608C93AEE4A5
:1043C000B0E0EEE4F0E080818B7F8C9388E090E0B9
:1043D00090936E0480936D0482C0AEE4B0E0EEE48E
:1043E000F0E0808181608C93AEE4B0E0EEE4F0E038
:1043F000808182608C93AEE4B0E0EEE4F0E08081F6
:104400008B7F8C9380E490E090936E0480936D0496
:1044100066C0AEE4B0E0EEE4F0E080818E7F8C9385
:10442000AEE4B0E0EEE4F0E080818D7F8C93AEE40A
:10443000B0E0EEE4F0E0808184608C9380E091E075
:1044400090936E0480936D044AC0AEE4B0E0EEE455
:10445000F0E0808181608C93AEE4B0E0EEE4F0E0C7
:1044600080818D7F8C93AEE4B0E0EEE4F0E080815B
:1044700084608C9380E094E090936E0480936D044C
:104480002EC0AEE4B0E0EEE4F0E080818E7F8C934D
:10449000AEE4B0E0EEE4F0E0808182608C93AEE4C4
:1044A000B0E0EEE4F0E0808184608C9318C0AEE46C
:1044B000B0E0EEE4F0E0808181608C93AEE4B0E0A7
:1044C000EEE4F0E0808182608C93AEE4B0E0EEE454
:1044D000F0E0808184608C9302C01A8202C091E077
:1044E0009A838A810F900F900F900F90CF91DF9158
:1044F0000895DF93CF93CDB7DEB7AEE4B0E0EEE43E
:10450000F0E080818E7F8C93AEE4B0E0EEE4F0E0EA
:1045100080818D7F8C93AEE4B0E0EEE4F0E08081AA
:104520008B7F8C93CF91DF910895DF93CF9300D051
:1045300000D00F92CDB7DEB789836A838A81282F96
:1045400030E03D832C838C819D8181309105E1F1A8
:104550002C813D81223031052CF48C819D81009786
:1045600071F09EC02C813D812230310509F451C08B
:104570008C819D818330910509F46FC091C0898140
:10458000882379F4AFE4B0E0EFE4F0E080818F7746
:104590008C93AFE4B0E0EFE4F0E080818F7B8C930C
:1045A00081C08981813009F07DC0AFE4B0E0EFE4E3
:1045B000F0E080818F7D8C93AFE4B0E0EFE4F0E039
:1045C00080818F7E8C936EC08981882379F4AFE4DB
:1045D000B0E0EFE4F0E080818F778C93AFE4B0E05F
:1045E000EFE4F0E0808180648C935CC0898181304D
:1045F00009F058C0AFE4B0E0EFE4F0E080818F7DD7
:104600008C93AFE4B0E0EFE4F0E0808180618C93C4
:1046100049C08981882379F4AFE4B0E0EFE4F0E0A9
:10462000808180688C93AFE4B0E0EFE4F0E08081BB
:104630008F7B8C9337C089818130A1F5AFE4B0E0E6
:10464000EFE4F0E0808180628C93AFE4B0E0EFE4CF
:10465000F0E080818F7E8C9325C08981882371F45E
:10466000AFE4B0E0EFE4F0E0808180688C93AFE4E9
:10467000B0E0EFE4F0E0808180648C938981813048
:1046800089F4AFE4B0E0EFE4F0E0808180628C93E5
:10469000AFE4B0E0EFE4F0E0808180618C9302C091
:1046A0001B8202C091E09B838B810F900F900F9033
:1046B0000F900F90CF91DF910895DF93CF9300D0AB
:1046C00000D0CDB7DEB789838981282F30E03C83C5
:1046D0002B838B819C818530910509F4E5C02B816A
:1046E0003C812630310524F58B819C8182309105F7
:1046F00009F483C02B813C812330310564F48B8124
:104700009C81009709F43FC02B813C812130310509
:1047100009F456C094C18B819C818330910509F4C2
:1047200089C02B813C812430310509F4A0C087C1A8
:104730008B819C818830910509F40DC12B813C81CE
:10474000293031056CF48B819C818630910509F408
:10475000C8C02B813C812730310509F4DFC06FC10F
:104760008B819C818A30910509F42FC12B813C817A
:104770002A3031050CF40CC18B819C818B30910562
:1047800009F440C15CC1AFE4B0E0EFE4F0E0808147
:1047900081608C93AFE4B0E0EFE4F0E080818D7F46
:1047A0008C93AEE4B0E0EEE4F0E08081877F8C9300
:1047B000AEE4B0E0EEE4F0E080818F7E8C9341C106
:1047C000AFE4B0E0EFE4F0E080818E7F8C93AFE463
:1047D000B0E0EFE4F0E0808182608C93AEE4B0E082
:1047E000EEE4F0E08081877F8C93AEE4B0E0EEE40D
:1047F000F0E080818F7E8C9324C1AFE4B0E0EFE4E1
:10480000F0E0808181608C93AFE4B0E0EFE4F0E011
:10481000808182608C93AEE4B0E0EEE4F0E08081D1
:10482000877F8C93AEE4B0E0EEE4F0E080818F7E91
:104830008C9307C1AFE4B0E0EFE4F0E080818160E9
:104840008C93AFE4B0E0EFE4F0E080818D7F8C9357
:10485000AEE4B0E0EEE4F0E0808188608C93AEE4FA
:10486000B0E0EEE4F0E080818F7E8C93EAC0AFE4AC
:10487000B0E0EFE4F0E080818E7F8C93AFE4B0E0B5
:10488000EFE4F0E0808182608C93AEE4B0E0EEE48F
:10489000F0E0808188608C93AEE4B0E0EEE4F0E07C
:1048A00080818F7E8C93CDC0AFE4B0E0EFE4F0E088
:1048B000808181608C93AFE4B0E0EFE4F0E0808130
:1048C00082608C93AEE4B0E0EEE4F0E0808188603A
:1048D0008C93AEE4B0E0EEE4F0E080818F7E8C93C8
:1048E000B0C0AFE4B0E0EFE4F0E080818E7F8C9365
:1048F000AFE4B0E0EFE4F0E080818D7F8C93AEE434
:10490000B0E0EEE4F0E08081877F8C93AEE4B0E02D
:10491000EEE4F0E0808180618C9393C0AFE4B0E07E
:10492000EFE4F0E0808181608C93AFE4B0E0EFE4ED
:10493000F0E080818D7F8C93AEE4B0E0EEE4F0E0B7
:104940008081877F8C93AEE4B0E0EEE4F0E080817C
:1049500080618C9376C0AFE4B0E0EFE4F0E080815A
:104960008E7F8C93AFE4B0E0EFE4F0E08081826072
:104970008C93AEE4B0E0EEE4F0E08081877F8C932E
:10498000AEE4B0E0EEE4F0E0808180618C9359C049
:10499000AFE4B0E0EFE4F0E0808181608C93AFE4BD
:1049A000B0E0EFE4F0E0808182608C93AEE4B0E0B0
:1049B000EEE4F0E08081877F8C93AEE4B0E0EEE43B
:1049C000F0E0808180618C933CC0AFE4B0E0EFE424
:1049D000F0E080818E7F8C93AFE4B0E0EFE4F0E014
:1049E000808182608C93AEE4B0E0EEE4F0E0808100
:1049F00088608C93AEE4B0E0EEE4F0E0808180610A
:104A00008C931FC0AFE4B0E0EFE4F0E08081816000
:104A10008C93AFE4B0E0EFE4F0E0808182608C93AF
:104A2000AFE4B0E0EFE4F0E0808188608C93AFE425
:104A3000B0E0EFE4F0E0808180618C9302C01A82E4
:104A400002C091E09A838A810F900F900F900F908F
:104A5000CF91DF910895DF93CF93CDB7DEB72A973B
:104A60000FB6F894DEBF0FBECDBF8B834C835D8342
:104A70006E837F836C817D818E819F8120E030E019
:104A800048EC52E40E941903DC01CB018C839D8326
:104A9000AE83BF83E6E4F0E080819181CC01A0E0A9
:104AA000B0E0BC01CD010E940705DC01CB01BC01D7
:104AB000CD012C813D814E815F810E941F02DC016E
:104AC000CB01BC01CD010E944900DC01CB019A83DE
:104AD00089838B81282F30E03A87298789859A85B9
:104AE000009731F029853A852130310541F00EC01B
:104AF000EAE4F0E089819A819183808309C0E8E447
:104B0000F0E089819A819183808302C0188602C077
:104B100031E0388788852A960FB6F894DEBF0FBE3D
:104B2000CDBFCF91DF9108950F931F93DF93CF9364
:104B300000D0CDB7DEB79A83898306E410E02091D8
:104B40006D0430916E0489819A81AC01249FC0016B
:104B5000259F900D349F900D11249C0140E050E062
:104B600080E092E1AAE7B0E0BC01CD010E94822B77
:104B7000DA01C9010197F8019183808389819A81C3
:104B80009093700480936F040F900F90CF91DF91FA
:104B90001F910F9108950F931F93DF93CF9300D030
:104BA000CDB7DEB79A83898306E410E020916D04C7
:104BB00030916E0489819A81AC01249FC001259FA8
:104BC000900D349F900D1124880F991F9C0140E097
:104BD00050E080E092E1AAE7B0E0BC01CD010E9484
:104BE000822BDA01C901F8019183808389819A813E
:104BF0009093700480936F040F900F90CF91DF918A
:104C00001F910F910895EF92FF920F931F93DF93DF
:104C1000CF93CDB7DEB728970FB6F894DEBF0FBE9F
:104C2000CDBF9C838B836D838B819C817C0100E055
:104C300010E080916D0490916E04CC01A0E0B0E092
:104C400020E432E44FE050E0BC01CD010E94502B43
:104C5000DC01CB0120E032E14AE750E0BC01CD01AC
:104C60000E94822BDA01C9019C01AD01C801B70184
:104C70000E94822BDA01C9019A8389838D81282FB2
:104C800030E038872F838F819885009731F02F810E
:104C900038852130310541F00EC0EAE4F0E0898129
:104CA0009A819183808309C0E8E4F0E089819A8148
:104CB0009183808302C01E8202C031E03E838E81D8
:104CC00028960FB6F894DEBF0FBECDBFCF91DF910F
:104CD0001F910F91FF90EF900895DF93CF9300D035
:104CE00000D000D0CDB7DEB789837B836A8389810A
:104CF000282F30E03E832D838D819E81009731F0F7
:104D00002D813E812130310541F00EC0EAE4F0E012
:104D10008A819B819183808309C0E8E4F0E08A81E5
:104D20009B819183808302C01C8202C031E03C835E
:104D30008C8126960FB6F894DEBF0FBECDBFCF9103
:104D4000DF910895DF93CF930F92CDB7DEB78091B7
:104D50005704992787FD9095019620E230E0B9012C
:104D60000E946F2B9C0180915604992787FD909596
:104D70002817390711F4198202C081E089838981DB
:104D80000F90CF91DF910895DF93CF930F92CDB71E
:104D9000DEB7809156048F3F39F4809157048F3FDE
:104DA00019F482E0898302C083E0898389810F90AE
:104DB000CF91DF910895DF93CF9300D0CDB7DEB7C9
:104DC00089830E94A226882311F41A8222C00E949D
:104DD000C426823029F410925604109257040DC054
:104DE00080915704992787FD9095019620E230E045
:104DF000B9010E946F2B8093570480915704992723
:104E000087FD9095FC01EF58FB4F8981808381E0FD
:104E10008A838A810F900F90CF91DF910895DF935D
:104E2000CF9300D00F92CDB7DEB79A8389830E94CB
:104E3000C426823011F41B8228C080915604992721
:104E400087FD9095FC01EF58FB4F8081E981FA8145
:104E500080839091560480915704981739F48FEF0E
:104E6000809356048FEF809357040DC080915604B1
:104E7000992787FD9095019620E230E0B9010E94C4
:104E80006F2B8093560481E08B838B810F900F9062
:104E90000F90CF91DF910895DF93CF93CDB7DEB719
:104EA00080E090E0A0E0B0E08093910490939204C1
:104EB000A0939304B0939404CF91DF910895DF936E
:104EC000CF93CDB7DEB78091910490919204A091D9
:104ED0009304B0919404BC01CD01CF91DF9108956A
:104EE000DF93CF9300D000D000D0CDB7DEB71E82C5
:104EF0001D8280E090E0A0E0B0E089839A83AB83DC
:104F0000BC839E012B5F3F4F80E0B9010E948B095B
:104F10008D819E81CC01A0E0B0E0BC01CD010E945A
:104F20000705DC01CB01BC01CD012AE137E64CE9E4
:104F300050E40E941F02DC01CB0189839A83AB837A
:104F4000BC8369817A818B819C8120E030E048ECD0
:104F500052E40E941903DC01CB01BC01CD0120E029
:104F600030E040E050E40E941903DC01CB01809363
:104F7000910490939204A0939304B0939404269682
:104F80000FB6F894DEBF0FBECDBFCF91DF9108956D
:104F90000F931F93DF93CF93CDB7DEB760970FB614
:104FA000F894DEBF0FBECDBF6B877C878D879E8751
:104FB000588B4F871F82188619861A861B821C827F
:104FC0001D821E821A8219828B859C85AD85BE85C5
:104FD000BB238CF48B859C85AD85BE85B095A09553
:104FE000909581959F4FAF4FBF4F8B879C87AD8723
:104FF000BE8781E08A838B859C85AD85BE858B834A
:105000009C83AD83BE831DC08B819C81AD81BE819D
:105010002AE030E040E050E0BC01CD010E94A42B2A
:10502000DA01C9018B839C83AD83BE838F81988510
:10503000A985BA850196A11DB11D8F839887A9877F
:10504000BA878B819C81AD81BE81181619061A061C
:105050001B06D4F28A81813089F48F819885A985D5
:10506000BA850196A11DB11D8F839887A987BA873C
:10507000EF85F8898DE2808381E089832F813885EF
:105080008F859889FC01E20FF31F10828F8198852C
:10509000A985BA850197A109B1098F839887A98746
:1050A000BA8735C02F8138858F8598898C01020F8A
:1050B000131F8B859C85AD85BE852AE030E040E0DE
:1050C00050E0BC01CD010E94A42BDC01CB01805D2E
:1050D000F80180838F819885A985BA850197A109F8
:1050E000B1098F839887A987BA878B859C85AD8501
:1050F000BE852AE030E040E050E0BC01CD010E94D6
:10510000A42BDA01C9018B879C87AD87BE87898173
:10511000282F30E040E050E08F819885A985BA853E
:1051200082179307A407B5070CF0BCCF60960FB6A3
:10513000F894DEBF0FBECDBFCF91DF911F910F91CD
:1051400008950F931F93DF93CF93CDB7DEB76D977D
:105150000FB6F894DEBF0FBECDBF6F8B788F898FEF
:105160009A8F5C8F4B8F2D8F1B8A1C8A1D8A1E8AFB
:105170001F86188A198A1A8A80E090E0A0E0B0E0C1
:105180008B879C87AD87BE871F82188619861A86F3
:105190001B821C821D821E821A8219826F89788D61
:1051A000898D9A8D20E030E040E050E00E94250497
:1051B00088235CF48F89988DA98DBA8DB0588F8B18
:1051C000988FA98FBA8F81E08A836F89788D898DB6
:1051D0009A8D0E94B304DC01CB018F839887A98745
:1051E000BA876F89788D898D9A8D0E94B304DC010E
:1051F000CB018B839C83AD83BE838B819C81AD81EE
:10520000BE810097A105B10531F581E090E0A0E0F5
:10521000B0E08B8B9C8BAD8BBE8B26C08B819C8131
:10522000AD81BE812AE030E040E050E0BC01CD011C
:105230000E94A42BDA01C9018B839C83AD83BE83BA
:105240008B899C89AD89BE890196A11DB11D8B8B6F
:105250009C8BAD8BBE8B8B819C81AD81BE811816E2
:1052600019061A061B06D4F28A81813089F48B89CB
:105270009C89AD89BE890196A11DB11D8B8B9C8B2C
:10528000AD8BBE8BEB8DFC8D8DE2808381E08983BD
:105290006F89788D898D9A8D0E94B304DC01CB01D2
:1052A0008B839C83AD83BE838B899C89AD89BE89AA
:1052B0000196A11DB11D8F87988BA98BBA8B2B8965
:1052C0003C898B8D9C8DFC01E20FF31F8EE2808365
:1052D0008B899C89AD89BE890197A109B1098B8B06
:1052E0009C8BAD8BBE8B35C02B893C898B8D9C8D67
:1052F0008C01020F131F8B819C81AD81BE812AE03E
:1053000030E040E050E0BC01CD010E94A42BDC0164
:10531000CB01805DF80180838B899C89AD89BE8932
:105320000197A109B1098B8B9C8BAD8BBE8B8B81B7
:105330009C81AD81BE812AE030E040E050E0BC01BC
:10534000CD010E94A42BDA01C9018B839C83AD831C
:10535000BE838981282F30E040E050E08B899C8912
:10536000AD89BE8982179307A407B5070CF0BCCF9F
:105370006F81788589859A850E9455049B01AC01CF
:105380006F89788D898D9A8D0E94C101DC01CB01D6
:105390008B879C87AD87BE871B8A1C8A1D8A1E8AC5
:1053A0006B857C858D859E8520E030E040E050E077
:1053B0000E94C50318160CF466C07BC06B857C8503
:1053C0008D859E8520E030E040E251E40E941F027E
:1053D000DC01CB018B879C87AD87BE872F85388901
:1053E0008B8D9C8D8C01020F131F6B857C858D85A9
:1053F0009E8520E030E040E452E40E94F201DC01AE
:10540000CB01BC01CD010E944900DC01CB01F801B8
:1054100080836B857C858D859E850E94B304DC012D
:10542000CB018F839887A987BA876F817885898513
:105430009A850E9455049B01AC016B857C858D8506
:105440009E850E94C101DC01CB018B879C87AD87C3
:10545000BE878F859889A989BA890196A11DB11D3A
:105460008F87988BA98BBA8B8B899C89AD89BE89D4
:105470000196A11DB11D8B8B9C8BAD8BBE8B9B8927
:105480008D8D981768F46B857C858D859E8520E0D1
:1054900030E040E050E00E94C50318160CF48ECFB7
:1054A0008F8598892B8D3C8DF901E80FF91F1082AB
:1054B0000BC08F8598899C01215030408B8D9C8D2D
:1054C000FC01E20FF31F10826D960FB6F894DEBF59
:1054D0000FBECDBFCF91DF911F910F910895DF9344
:1054E000CF9300D000D0CDB7DEB79C838B831A82D8
:1054F00019821A8240C08A81282F30E08B819C81DA
:10550000FC01E20FF31F8081803291F526C08A8171
:10551000898318C08981282F30E08B819C81DC0130
:10552000A20FB31F8981882F90E09C012F5F3F4F0E
:105530008B819C81FC01E20FF31F80818C93898118
:105540008F5F89838981282F30E08B819C81FC01CA
:10555000E20FF31F80818823E9F68A81282F30E04B
:105560008B819C81FC01E20FF31F8081803279F2F4
:105570008A818F5F8A838A81282F30E08B819C818A
:10558000FC01E20FF31F8081882309F0B4CF0F9054
:105590000F900F900F90CF91DF910895DF93CF93ED
:1055A00000D000D0CDB7DEB79A8389837C836B832C
:1055B00012C0E981FA819081EB81FC81808198178A
:1055C00079F489819A8101969A8389838B819C8160
:1055D00001969C838B83E981FA818081882349F736
:1055E000E981FA819081EB81FC818081292F281B40
:1055F000822F0F900F900F900F90CF91DF91089511
:10560000DF93CF93CDB7DEB764970FB6F894DEBFC4
:105610000FBECDBF19821B8281E08A831D821E824C
:1056200081E08C83CE0101960E943E1A0E94741F75
:105630000E94AC1481E460E040E00E94530D1C869F
:1056400081E0888B87E08A8781E08B871D8681E0F7
:105650008E871F86CE0109960E9475078AE08A8B85
:1056600082E0898B1B8A84E08C8BCE0141960E945C
:105670000F2182E390E00E9494250E944C270E9413
:10568000C21F80E060E00E94A80A0E944C100E94A5
:105690005B108130E1F70E941A148130E1F3F7CFFB
:1056A000629FD001739FF001829FE00DF11D649F06
:1056B000E00DF11D929FF00D839FF00D749FF00D92
:1056C000659FF00D9927729FB00DE11DF91F639F33
:1056D000B00DE11DF91FBD01CF011124089597FB05
:1056E000092E07260AD077FD04D049D006D0002025
:1056F0001AF4709561957F4F0895F6F7909581950E
:105700009F4F0895A1E21A2EAA1BBB1BFD010DC0DD
:10571000AA1FBB1FEE1FFF1FA217B307E407F50761
:1057200020F0A21BB30BE40BF50B661F771F881F3D
:10573000991F1A9469F760957095809590959B01D3
:10574000AC01BD01CF01089597FB092E05260ED0AF
:1057500057FD04D0D7DF0AD0001C38F4509540958F
:10576000309521953F4F4F4F5F4F0895F6F7909535
:105770008095709561957F4F8F4F9F4F0895AA1B1D
:10578000BB1B51E107C0AA1FBB1FA617B70710F02C
:10579000A61BB70B881F991F5A95A9F7809590955E
:1057A000BC01CD0108952F923F924F925F926F926C
:1057B0007F928F929F92AF92BF92CF92DF92EF92A1
:1057C000FF920F931F93CF93DF93CDB7DEB7CA1B22
:1057D000DB0B0FB6F894DEBF0FBECDBF09942A884D
:1057E000398848885F846E847D848C849B84AA84F5
:1057F000B984C884DF80EE80FD800C811B81AA8182
:10580000B981CE0FD11D0FB6F894DEBF0FBECDBF4C
:10581000ED010895DC0101C06D9341505040E0F767
:105820000895FB01DC0101900D920020E1F708953D
:10583000FC0101900020E9F7809590958E0F9F1F45
:065840000895F894FFCF6B
:10584600456E7465722075736572206E616D6500B4
:1058560054727920616761696E0057726F6E6720B6
:105866007573657200456E7465722070617373009E
:1058760057726F6E672070617373776F726400542E
:10588600656D706572617475726520697300576520
:105896006C636F6D652C2043686F6F7365206F7046
:1058A60074696F6E00312D20636F6E74726F6C2099
:1058B600646F6F7200322D20746F67676C65206CA1
:1058C6006967687400332D204765742074656D70B0
:1058D6002000302D2045786974206D656E75200096
:1058E6004F70656E696E6720646F6F7200436C6FF0
:1058F60073696E6720646F6F7200546F67676C69B7
:105906006E67206C696768740057726F6E672063F4
:10591600686F696365000000000000000000000178
:105926000202030303030404040404040404050537
:10593600050505050505050505050505050506060F
:1059460006060606060606060606060606060606F1
:1059560006060606060606060606060606060707DF
:1059660007070707070707070707070707070707C1
:1059760007070707070707070707070707070707B1
:1059860007070707070707070707070707070707A1
:10599600070707070707070707070707070708088F
:1059A6000808080808080808080808080808080871
:1059B6000808080808080808080808080808080861
:1059C6000808080808080808080808080808080851
:1059D6000808080808080808080808080808080841
:1059E6000808080808080808080808080808080831
:1059F6000808080808080808080808080808080821
:105A06000808080808080808080808080808080810
:105A160008080808080808080808080808084200CE
:105A2600420142024203420442054206420737341B
:105A36003143383532303936333D2F2A2D2B410349
:105A46004107313233343500000000000000000009
:105A56000000000000000000000000000000000040
:105A66000000000000000000000000000000000030
:105A76000000000031333537390000000000000017
:105A86000000000000000000000000000000000010
:105A96000000000000000000000000000000000000
:105AA60000000000000032343638300000000000EC
:105AB60000000000000000000000000000000000E0
:105AC60000000000000000000000000000000000D0
:105AD60000000000000000000000000000000000C0
