:100000000C942A000C9447000C9447000C94470071
:100010000C9447000C9447000C9447000C94470044
:100020000C9447000C9447000C9447000C94470034
:100030000C9447000C9447000C9447000C94470024
:100040000C9447000C9447000C9447000C94470014
:100050000C94470011241FBECFE5D8E0DEBFCDBF12
:1000600014E0A0E6B0E0ECEAFAE402C005900D92DC
:10007000A638B107D9F714E0A6E8B4E001C01D9294
:10008000A639B107E1F70E94CE210C9454250C94B7
:100090000000EF92FF920F931F937B018C0120E0F1
:1000A00030E040E05FE40E94F50388238CF0C80153
:1000B000B70120E030E040E05FE40E94C1010E940F
:1000C000B3049B01AC01205030404040504806C072
:1000D000C801B7010E94B3049B01AC01B901CA0178
:1000E0001F910F91FF90EF900895A0E0B0E0EBE733
:1000F000F0E00C947B22DC012B01FA019C91923000
:1001000008F439C1EB018881823008F433C194309E
:1001100069F4843009F02FC111969C91119789815F
:10012000981709F428C1A5E8B1E025C1843009F485
:1001300021C18230A9F4923009F01DC19A01AD01AC
:1001400088E0EA010990AE01E90109929E0181501F
:10015000C1F7E201898111969C918923818308C1AD
:10016000923009F407C112962D903C901397EB0141
:100170008A819B811496AD90BD90CD90DC901797AD
:10018000EC80FD800E811F819101281B390BB90184
:1001900037FF04C066277727621B730B6032710537
:1001A0000CF061C0121613066CF537014801062EDB
:1001B00004C096948794779467940A94D2F721E0C8
:1001C00030E040E050E004C0220F331F441F551FB1
:1001D0006A95D2F721503040404050402E213F21B7
:1001E00040235123211531054105510521F021E01E
:1001F00030E040E050E079018A01E628F72808293C
:1002000019293CC0232BD1F1260E371E350146019A
:10021000062E04C096948794779467940A94D2F734
:1002200021E030E040E050E004C0220F331F441FC3
:10023000551F6A95D2F721503040404050402A2146
:100240003B214C215D21211531054105510521F04E
:1002500021E030E040E050E059016A01A628B728CB
:10026000C828D9280BC0821593052CF01C01AA249C
:10027000BB24650103C0EE24FF24870111969C91E5
:10028000D20111968C91981709F445C0992339F041
:10029000A80197012A193B094C095D0906C0A6016E
:1002A00095012E193F09400B510B57FD08C01182D3
:1002B0003382228224833583468357831DC081E0A5
:1002C00081833382228288279927DC01821B930B4A
:1002D000A40BB50B84839583A683B7830DC0220F2F
:1002E000331F441F551F24833583468357838281E0
:1002F000938101979383828324813581468157813D
:10030000DA01C9010197A109B1098F5F9F4FAF4F72
:10031000BF4328F30BC0918333822282EA0CFB1C7B
:100320000C1D1D1DE482F5820683178383E0808304
:10033000248135814681578157FF1AC0C901AA27F8
:1003400097FDA095BA2F81709070A070B0705695EF
:10035000479537952795822B932BA42BB52B848318
:100360009583A683B7838281938101969383828349
:10037000DF0101C0D201CD01CDB7DEB7E2E10C94BF
:100380009722A0E2B0E0E7ECF1E00C9487226983C9
:100390007A838B839C832D833E834F835887E9E048
:1003A000EE2EF12CEC0EFD1ECE010196B7010E943F
:1003B000A4068E010F5E1F4FCE010596B8010E9464
:1003C000A4068A8991E089278A8BC701B801AE010A
:1003D000475E5F4F0E9475000E94CF05A096E6E041
:1003E0000C94A322A0E2B0E0E8EFF1E00C948722A5
:1003F00069837A838B839C832D833E834F835887C5
:10040000F9E0EF2EF12CEC0EFD1ECE010196B701A6
:100410000E94A4068E010F5E1F4FCE010596B80103
:100420000E94A406C701B801AE01475E5F4F0E945B
:1004300075000E94CF05A096E6E00C94A322A0E2EE
:10044000B0E0E5E2F2E00C947B2269837A838B834F
:100450009C832D833E834F835887CE010196BE0136
:10046000675F7F4F0E94A406CE010596BE016F5EB6
:100470007F4F0E94A4069985923088F08989823046
:10048000C8F0943019F4823051F404C0843029F457
:10049000923081F485E891E0C6C0923049F420E0C2
:1004A0009A858A89981321E02A87CE010996BBC0D4
:1004B000823049F420E09A858A89981321E02A8BBA
:1004C000CE014196B0C02D843E844F8458886D88FB
:1004D0007E888F88988CEE24FF248701AA24BB2471
:1004E000650140E050E060E070E0E0E0F0E0C10174
:1004F00081709070892BE9F0E60CF71C081D191D1E
:100500009A01AB012A0D3B1D4C1D5D1D80E090E062
:10051000A0E0B0E0E614F7040805190520F481E036
:1005200090E0A0E0B0E0BA01A901480F591F6A1F8E
:100530007B1FAA0CBB1CCC1CDD1C97FE08C081E0F5
:1005400090E0A0E0B0E0A82AB92ACA2ADB2A3196B6
:10055000E032F10549F0660C771C881C991C569412
:10056000479437942794C3CFFA85EA892B893C892D
:100570008B859C85280F391F2E5F3F4F17C0CA01FE
:1005800081709070892B61F016950795F794E79428
:1005900080E090E0A0E0B0E8E82AF92A0A2B1B2BC3
:1005A00076956795579547952F5F3F4F77FDE7CF36
:1005B0000CC0440F551F661F771F17FD4160EE0CDE
:1005C000FF1C001F111F21503040403090E05907A0
:1005D00090E0690790E4790760F32B8F3C8FDB0193
:1005E000CA018F779070A070B07080349105A1051A
:1005F000B10561F447FD0AC0E114F10401051105DC
:1006000029F0405C5F4F6F4F7F4F40781A8EFE1786
:1006100011F081E08A8F4D8F5E8F6F8F78A383E01A
:10062000898FCE0149960E94CF05A096E2E10C94F5
:100630009722A8E1B0E0EFE1F3E00C948322698314
:100640007A838B839C832D833E834F835887B9E0C5
:10065000EB2EF12CEC0EFD1ECE010196B7010E948F
:10066000A4068E010F5E1F4FCE010596B8010E94B1
:10067000A4062985223008F47EC03989323010F46E
:10068000B8017CC08A859A8989278A87243011F02D
:10069000223031F4231709F06EC065E871E06EC0B6
:1006A000343039F41D861E861F86188A1C861B86E8
:1006B00004C0323021F484E08987B7015FC02B8504
:1006C0003C858B899C89281B390B3C872B87ED84C3
:1006D000FE840F851889AD88BE88CF88D88CEA142F
:1006E000FB040C051D0540F4EE0CFF1C001F111F40
:1006F000215030403C872B8720E030E040E050E044
:1007000080E090E0A0E0B0E460E070E0EA14FB0478
:100710000C051D0540F0282B392B4A2B5B2BEA18C2
:10072000FB080C091D09B695A79597958795EE0CC2
:10073000FF1C001F111F6F5F7F4F6F31710531F775
:10074000DA01C9018F779070A070B0708034910584
:10075000A105B10561F427FD0AC0E114F10401050A
:10076000110529F0205C3F4F4F4F5F4F20782D87B8
:100770003E874F87588BBE01675F7F4FCB010E943A
:10078000CF056896EAE00C949F22A8E1B0E0EBEC7C
:10079000F3E00C94872269837A838B839C832D8377
:1007A0003E834F83588789E0E82EF12CEC0EFD1E26
:1007B000CE010196B7010E94A4068E010F5E1F4F65
:1007C000CE010596B8010E94A4068985823040F0CA
:1007D0008989823028F0C701B8010E941C0701C036
:1007E0008FEF6896E6E00C94A322A8E1B0E0EBEF6F
:1007F000F3E00C94872269837A838B839C832D8317
:100800003E834F83588789E0E82EF12CEC0EFD1EC5
:10081000CE010196B7010E94A4068E010F5E1F4F04
:10082000CE010596B8010E94A4068985823040F069
:100830008989823028F0C701B8010E941C0701C0D5
:100840008FEF6896E6E00C94A322A8E1B0E0EBE21B
:10085000F4E00C94872269837A838B839C832D83B5
:100860003E834F83588789E0E82EF12CEC0EFD1E65
:10087000CE010196B7010E94A4068E010F5E1F4FA4
:10088000CE010596B8010E94A4068985823040F009
:100890008989823028F0C701B8010E941C0701C075
:1008A00081E06896E6E00C94A322A8E0B0E0EBE5D6
:1008B000F4E00C9484229B01AC0183E08983DA018B
:1008C000C9018827B7FD83959927AA27BB27B82E8A
:1008D000211531054105510519F482E089833AC09B
:1008E0008823A9F0203080E0380780E0480780E8BE
:1008F000580729F460E070E080E09FEC30C0EE24FF
:10090000FF248701E21AF30A040B150B02C07901D8
:100910008A018EE1C82ED12CDC82CB82ED82FE8250
:100920000F831887C801B7010E9480050197181628
:10093000190684F4082E04C0EE0CFF1C001F111FC2
:100940000A94D2F7ED82FE820F831887C81AD90A5B
:10095000DC82CB82BA82CE0101960E94CF05289616
:10096000E9E00C94A022ACE0B0E0E9EBF4E00C94F8
:100970008B2269837A838B839C83CE010196BE018F
:100980006B5F7F4F0E94A4068D81823061F18230BF
:1009900050F1843021F48E81882351F12EC02F81B3
:1009A000388537FD20C06E812F3131051CF066235C
:1009B000F9F023C08EE190E0821B930B29853A85E4
:1009C0004B855C8504C056954795379527958A9544
:1009D000D2F76623B1F050954095309521953F4F61
:1009E0004F4F5F4F0EC020E030E040E050E009C0C4
:1009F0002FEF3FEF4FEF5FE704C020E030E040E033
:100A000050E8B901CA012C96E2E00C94A722A8E0B4
:100A1000B0E0EDE0F5E00C9483227B018C016115E0
:100A200071058105910519F482E0898360C083E036
:100A300089838EE1C82ED12CDC82CB82ED82FE82AE
:100A40000F831887C801B7010E948005FC01319708
:100A5000F7FF3BC0222733272E1B3F0B57016801AE
:100A6000022E04C0D694C794B794A7940A94D2F7E0
:100A700040E050E060E070E081E090E0A0E0B0E0B5
:100A800004C0880F991FAA1FBB1F2A95D2F7019790
:100A9000A109B1098E219F21A023B1230097A105AF
:100AA000B10521F041E050E060E070E04A295B29A7
:100AB0006C297D294D835E836F8378878EE190E07A
:100AC0008E1B9F0B9C838B8312C0309781F00E2E60
:100AD00004C0EE0CFF1C001F111F0A94D2F7ED8218
:100AE000FE820F831887CE1ADF0ADC82CB821A823D
:100AF000CE0101960E94CF052896EAE00C949F2231
:100B0000EF92FF920F931F937B018C0180E0E81618
:100B100080E0F80681E0080780E0180788F48FEF8E
:100B2000E816F1040105110531F028F088E090E0A5
:100B3000A0E0B0E017C080E090E0A0E0B0E012C01C
:100B400080E0E81680E0F80680E0080781E01807FA
:100B500028F088E190E0A0E0B0E004C080E190E0FF
:100B6000A0E0B0E020E230E040E050E0281B390B8C
:100B70004A0B5B0B04C016950795F794E7948A958A
:100B8000D2F7F701E357FE4F8081281B3109410955
:100B90005109C9011F910F91FF90EF900895DF92C5
:100BA000EF92FF920F931F93FC01E480F580068182
:100BB0001781D1808081823048F480E090E0A0E10C
:100BC000B0E0E82AF92A0A2B1B2BA5C0843009F4CF
:100BD0009FC0823021F4EE24FF24870105C0E11478
:100BE000F1040105110519F4E0E0F0E096C062811E
:100BF00073819FEF623879070CF05BC022E83FEF0A
:100C0000261B370B2A3131052CF020E030E040E084
:100C100050E02AC0B801A701022E04C0769567955E
:100C2000579547950A94D2F781E090E0A0E0B0E0B4
:100C300004C0880F991FAA1FBB1F2A95D2F70197DE
:100C4000A109B1098E219F21A023B1230097A105FD
:100C5000B10521F081E090E0A0E0B0E09A01AB01A5
:100C6000282B392B4A2B5B2BDA01C9018F77907027
:100C7000A070B07080349105A105B10539F427FF4B
:100C800009C0205C3F4F4F4F5F4F04C0215C3F4F76
:100C90004F4F5F4FE0E0F0E02030A0E03A07A0E0E7
:100CA0004A07A0E45A0710F0E1E0F0E079018A0178
:100CB00027C06038710564F5FB01E158FF4FD8018A
:100CC000C7018F779070A070B07080349105A10536
:100CD000B10539F4E7FE0DC080E490E0A0E0B0E09B
:100CE00004C08FE390E0A0E0B0E0E80EF91E0A1F18
:100CF0001B1F17FF05C016950795F794E7943196CB
:100D000087E016950795F794E7948A95D1F705C083
:100D1000EE24FF248701EFEFF0E06E2F6795662742
:100D20006795902F9F77D794DD24D7948E2F869543
:100D3000492F462B582F5D29B701CA011F910F91EA
:100D4000FF90EF90DF900895FC01DB01408151811D
:100D50002281622F6F7770E0221F2227221F93814A
:100D6000892F880F822B282F30E0991F9927991FF0
:100D700011969C93119721153105A9F5411551053F
:100D80006105710511F482E037C082E89FEF139688
:100D90009C938E9312979A01AB0167E0220F331F49
:100DA000441F551F6A95D1F783E08C930DC0220F25
:100DB000331F441F551F12968D919C9113970197D5
:100DC00013969C938E931297203080E0380780E032
:100DD000480780E4580758F314962D933D934D939C
:100DE0005C93179708952F3F310579F4411551050C
:100DF0006105710519F484E08C93089564FF03C0C4
:100E000081E08C9312C01C9210C02F573040139673
:100E10003C932E93129783E08C9387E0440F551FE9
:100E2000661F771F8A95D1F7706414964D935D9372
:100E30006D937C93179708951F93DC01FB019C91A0
:100E4000923008F447C08081823008F443C0943067
:100E500051F411961C91843099F58181682F70E0CE
:100E6000611B71093FC0843021F0923031F482302F
:100E7000B9F18181882389F12DC011961C911197B8
:100E80008230F1F081811817D9F412962D913C919E
:100E90001397828193818217930794F0281739075B
:100EA000BCF014968D919D910D90BC91A02D248144
:100EB000358146815781281739074A075B0718F49F
:100EC000112341F00AC082179307A407B50740F425
:100ED000112319F061E070E005C06FEF7FEF02C0F1
:100EE00060E070E0CB011F910895DF93CF9300D0B5
:100EF0000F92CDB7DEB79B838A831982EA81FB818B
:100F000082810E94BA078983EA81FB8183810E94E2
:100F10000D088983EA81FB818381813021F481E09E
:100F20008093860402C010928604EA81FB8184814A
:100F30000E9496088983EA81FB8185810E94CF08FF
:100F40008983EA81FB8181810E9401098983EA8189
:100F5000FB8186810E9423098983EA81FB81878145
:100F60000E946408898389810F900F900F90CF9120
:100F7000DF910895DF93CF9300D000D0CDB7DEB7D7
:100F800089838981282F30E03C832B838B819C814E
:100F900081309105C1F02B813C812230310511F166
:100FA0008B819C81009769F5A7E2B0E0E7E2F0E071
:100FB00080818F778C93A7E2B0E0E7E2F0E0808158
:100FC0008F7B8C9320C0A7E2B0E0E7E2F0E0808165
:100FD0008F778C93A7E2B0E0E7E2F0E08081806455
:100FE0008C9311C0A7E2B0E0E7E2F0E08081806876
:100FF0008C93A7E2B0E0E7E2F0E0808180648C931C
:1010000002C01A8202C091E09A838A810F900F90E9
:101010000F900F90CF91DF910895DF93CF9300D081
:1010200000D0CDB7DEB789838981282F30E03C839B
:101030002B838B819C81009731F02B813C81213067
:10104000310549F010C0A7E2B0E0E7E2F0E08081AE
:1010500080628C930AC0A7E2B0E0E7E2F0E0808112
:101060008F7D8C9302C01A8202C031E03A838A815C
:101070000F900F900F900F90CF91DF910895DF9315
:10108000CF9300D0CDB7DEB789838981803210F04D
:101090001A8214C0898187708983A7E2B0E0E7E2F1
:1010A000F0E08081807E8C93A7E2B0E0E7E2F0E0A0
:1010B00090818981892B8C9381E08A838A810F902A
:1010C0000F90CF91DF910895DF93CF9300D000D0A0
:1010D000CDB7DEB789838981282F30E03C832B830D
:1010E0008B819C81009731F02B813C81213031052F
:1010F00049F010C0A6E2B0E0E6E2F0E080818F7730
:101100008C930AC0A6E2B0E0E6E2F0E0808180685D
:101110008C9302C01A8202C031E03A838A810F9018
:101120000F900F900F90CF91DF910895DF93CF93A1
:1011300000D000D0CDB7DEB789838981282F30E079
:101140003C832B838B819C81009731F02B813C81E8
:101150002130310549F010C0A6E2B0E0E6E2F0E04F
:101160008081877F8C930AC0A6E2B0E0E6E2F0E0DF
:10117000808188608C9302C01A8209C0A6E2B0E028
:10118000E6E2F0E0808180648C9331E03A838A81EA
:101190000F900F900F900F90CF91DF910895DF93F4
:1011A000CF9300D000D0CDB7DEB789838981282FB7
:1011B00030E03C832B838B819C81009731F02B8125
:1011C0003C812130310549F010C0A6E2B0E0E6E2F2
:1011D000F0E080818F7D8C930AC0A6E2B0E0E6E269
:1011E000F0E0808180628C9302C01A8202C031E0FC
:1011F0003A838A810F900F900F900F90CF91DF91DB
:101200000895DF93CF9300D0CDB7DEB7898389816E
:10121000883010F01A8211C0A6E2B0E0E6E2F0E0F9
:101220008081887F8C93A6E2B0E0E6E2F0E09081D6
:101230008981892B8C9381E08A838A810F900F901A
:10124000CF91DF910895DF93CF9300D0CDB7DEB774
:1012500089838981883010F01A821CC0A0E5B0E033
:10126000E0E5F0E080818F708C93A0E5B0E0E0E5F0
:10127000F0E08081482F8981282F30E084E090E0E1
:10128000022E02C0880F991F0A94E2F7842B8C93D8
:1012900081E08A838A810F900F90CF91DF9108952A
:1012A000DF93CF9300D000D0CDB7DEB78A837C83A5
:1012B0006B8319828A810E943F08898381E00E94A2
:1012C0006408A6E2B0E0E6E2F0E0808180648C93FE
:1012D000E6E2F0E0808182958F70882F90E0817047
:1012E00090700097A9F3A6E2B0E0E6E2F0E080811A
:1012F00080618C93E5E2F0E08081EB81FC8180836A
:1013000080E00E94640889810F900F900F900F90E9
:10131000CF91DF910895DF93CF93CDB7DEB72997B3
:101320000FB6F894DEBF0FBECDBF8E8378876F8374
:101330001A821B821C821D8219828E810E943F08A4
:101340008983A6E2B0E0E6E2F0E0808180648C93DD
:101350001DC08A819B81AC81BD810196A11DB11DFB
:101360008A839B83AC83BD838A819B81AC81BD8151
:10137000803127E2920720E0A20720E0B20731F493
:10138000EF81F88511821082198643C0E6E2F0E011
:1013900080818295869586958370882F90E08170F4
:1013A00090700097B1F2A6E2B0E0E6E2F0E0808152
:1013B00080618C9380918604813049F4E4E2F0E00E
:1013C00080819181EF81F8859183808320C0809115
:1013D00086048823D9F4E4E2F0E080818295869542
:1013E00086958370882F90E0EF81F88591838083C4
:1013F000E5E2F0E08081882F90E0880F991F880F48
:10140000991FEF81F8859183808301C019828981BA
:101410008987898529960FB6F894DEBF0FBECDBFA8
:10142000CF91DF910895DF93CF9300D000D0CDB757
:10143000DEB78A837C836B8319828B819C81909336
:101440008804809387048A810E943F08898381E011
:101450000E949608898381E00E9464088983A6E23D
:10146000B0E0E6E2F0E0808180648C9389810F90A7
:101470000F900F900F90CF91DF9108951F920F92D0
:101480000FB60F9211242F933F934F935F936F9357
:101490007F938F939F93AF93BF93EF93FF93DF93CC
:1014A000CF9300D0CDB7DEB780918604813051F460
:1014B000E0918704F0918804A4E2B0E08D919C91C2
:1014C000099523C0809186048823F9F41A82198231
:1014D000E4E2F0E080818295869586958370882F7E
:1014E00090E09A838983E5E2F0E08081882F90E0A4
:1014F000880F991F880F991F9A838983E091870429
:10150000F091880489819A810995A6E2B0E0E6E22B
:10151000F0E0808180648C93A6E2B0E0E6E2F0E047
:10152000808180618C930F900F90CF91DF91FF911C
:10153000EF91BF91AF919F918F917F916F915F914B
:101540004F913F912F910F900FBE0F901F901895C4
:10155000DF93CF9300D00F92CDB7DEB789836A8334
:101560008981882F90E0009741F481E466E041E0B2
:101570000E94440D81E08B8301C01B828B810F9000
:101580000F900F90CF91DF910895DF93CF930F923B
:10159000CDB7DEB7898389810E94FA0A813029F4A8
:1015A000898160E00E94DD0A04C0898161E00E94B7
:1015B000DD0A0F90CF91DF910895DF93CF9300D094
:1015C0000F92CDB7DEB789836A838981882F90E037
:1015D000009741F481E466E04A810E94280E81E090
:1015E0008B8301C01B828B810F900F900F90CF9146
:1015F000DF910895DF93CF9300D0CDB7DEB78A8314
:1016000019828A81882F90E0009729F481E466E0AE
:101610000E940C0F898389810F900F90CF91DF91E9
:101620000895DF93CF93CDB7DEB7C655D0400FB640
:10163000F894DEBF0FBECDBF80E5FE013596DF0119
:10164000982F1D929A95E9F71C821B821A821982A3
:10165000CE01835A9F4FFE01EB5AFF4F9183808347
:10166000FE01EB5AFF4F40815181CE0105966D96E8
:101670002EAD3FAD6D97B9010E94BB22CE010596FC
:101680000E94B2229C838B831A82198211C0298105
:101690003A81CE010596FC01E20FF31F908181E0B3
:1016A000692F0E94F11D89819A8101969A8389830D
:1016B00029813A818B819C812817390740F3CA5AC6
:1016C000DF4F0FB6F894DEBF0FBECDBFCF91DF91D5
:1016D0000895DF93CF9300D0CDB7DEB79A83898387
:1016E00029813A8181E0B9010E94681E0F900F9014
:1016F000CF91DF910895DF93CF9300D0CDB7DEB7C0
:101700009A83898329813A8181E0B9010E94421E2E
:101710000F900F90CF91DF910895DF93CF9300D07A
:1017200000D00F92CDB7DEB79A8389836B834C8349
:101730002D830F900F900F900F900F90CF91DF910E
:101740000895DF93CF9300D000D00F92CDB7DEB7CE
:101750009B838A83198219828AC18981282F30E06C
:101760004A815B81C901880F991F820F931FFA017B
:10177000E80FF91F8081282F30E03D832C838C8176
:101780009D818234910509F46EC02C813D81233402
:10179000310534F48C819D818134910571F064C1EF
:1017A0002C813D812334310509F4B3C08C819D81A6
:1017B0008434910509F403C157C18981282F30E091
:1017C0004A815B81C901880F991F820F931F840F83
:1017D000951FFC0132968081813011F5AAE3B0E0BB
:1017E000EAE3F0E08081682F8981282F30E04A8188
:1017F0005B81C901880F991F820F931F840F951F6A
:10180000FC0131968081282F30E081E090E0022EAB
:1018100002C0880F991F0A94E2F7862B8C9324C18B
:10182000AAE3B0E0EAE3F0E08081682F8981282F05
:1018300030E04A815B81C901880F991F820F931F95
:10184000840F951FFC0131968081282F30E081E0C4
:1018500090E0022E02C0880F991F0A94E2F780954B
:1018600086238C9301C18981282F30E04A815B81D6
:10187000C901880F991F820F931F840F951FFC01C8
:1018800032968081813011F5A7E3B0E0E7E3F0E024
:101890008081682F8981282F30E04A815B81C901CE
:1018A000880F991F820F931F840F951FFC0131969B
:1018B0008081282F30E081E090E0022E02C0880F66
:1018C000991F0A94E2F7862B8C93CEC0A7E3B0E071
:1018D000E7E3F0E08081682F8981282F30E04A819A
:1018E0005B81C901880F991F820F931F840F951F79
:1018F000FC0131968081282F30E081E090E0022EBB
:1019000002C0880F991F0A94E2F7809586238C9372
:10191000ABC08981282F30E04A815B81C901880FE3
:10192000991F820F931F840F951FFC0132968081AF
:10193000813011F5A4E3B0E0E4E3F0E08081682FAA
:101940008981282F30E04A815B81C901880F991F66
:10195000820F931F840F951FFC0131968081282FE1
:1019600030E081E090E0022E02C0880F991F0A94B7
:10197000E2F7862B8C9378C0A4E3B0E0E4E3F0E0D8
:101980008081682F8981282F30E04A815B81C901DD
:10199000880F991F820F931F840F951FFC013196AA
:1019A0008081282F30E081E090E0022E02C0880F75
:1019B000991F0A94E2F7809586238C9355C08981FC
:1019C000282F30E04A815B81C901880F991F820F5F
:1019D000931F840F951FFC0132968081813011F591
:1019E000A1E3B0E0E1E3F0E08081682F8981282F56
:1019F00030E04A815B81C901880F991F820F931FD4
:101A0000840F951FFC0131968081282F30E081E002
:101A100090E0022E02C0880F991F0A94E2F7862BED
:101A20008C9322C0A1E3B0E0E1E3F0E08081682F75
:101A30008981282F30E04A815B81C901880F991F75
:101A4000820F931F840F951FFC0131968081282FF0
:101A500030E081E090E0022E02C0880F991F0A94C6
:101A6000E2F7809586238C9389818F5F89838A81B1
:101A70009B81009709F071CE0F900F900F900F90FF
:101A80000F90CF91DF910895DF93CF9300D000D0D6
:101A90000F92CDB7DEB789836A834B838981282F64
:101AA00030E03D832C838C819D818234910509F443
:101AB00044C02C813D812334310534F48C819D81D7
:101AC0008134910571F0BCC02C813D8123343105F6
:101AD00009F45FC08C819D818434910509F485C02F
:101AE000AFC08B818130A1F4AAE3B0E0EAE3F0E07B
:101AF0008081482F8A81282F30E081E090E0022EFB
:101B000002C0880F991F0A94E2F7842B8C9398C027
:101B1000AAE3B0E0EAE3F0E08081482F8A81282F31
:101B200030E081E090E0022E02C0880F991F0A94F5
:101B3000E2F7809584238C9383C08B818130A1F45C
:101B4000A7E3B0E0E7E3F0E08081482F8A81282F07
:101B500030E081E090E0022E02C0880F991F0A94C5
:101B6000E2F7842B8C936CC0A7E3B0E0E7E3F0E0EE
:101B70008081482F8A81282F30E081E090E0022E7A
:101B800002C0880F991F0A94E2F7809584238C93F2
:101B900057C08B818130A1F4A4E3B0E0E4E3F0E02E
:101BA0008081482F8A81282F30E081E090E0022E4A
:101BB00002C0880F991F0A94E2F7842B8C9340C0CF
:101BC000A4E3B0E0E4E3F0E08081482F8A81282F8D
:101BD00030E081E090E0022E02C0880F991F0A9445
:101BE000E2F7809584238C932BC08B818130A1F404
:101BF000A1E3B0E0E1E3F0E08081482F8A81282F63
:101C000030E081E090E0022E02C0880F991F0A9414
:101C1000E2F7842B8C9314C0A1E3B0E0E1E3F0E0A1
:101C20008081482F8A81282F30E081E090E0022EC9
:101C300002C0880F991F0A94E2F7809584238C9341
:101C40000F900F900F900F900F90CF91DF9108950C
:101C5000DF93CF9300D000D00F92CDB7DEB789834A
:101C60006A834B838981282F30E03D832C838C81CC
:101C70009D818234910509F444C02C813D81233437
:101C8000310534F48C819D818134910571F0BCC0A3
:101C90002C813D812334310509F45FC08C819D8105
:101CA0008434910509F485C0AFC08B818130A1F4E3
:101CB000ABE3B0E0EBE3F0E08081482F8A81282F8E
:101CC00030E081E090E0022E02C0880F991F0A9454
:101CD000E2F7842B8C9398C0ABE3B0E0EBE3F0E049
:101CE0008081482F8A81282F30E081E090E0022E09
:101CF00002C0880F991F0A94E2F7809584238C9381
:101D000083C08B818130A1F4A8E3B0E0E8E3F0E088
:101D10008081482F8A81282F30E081E090E0022ED8
:101D200002C0880F991F0A94E2F7842B8C936CC031
:101D3000A8E3B0E0E8E3F0E08081482F8A81282F13
:101D400030E081E090E0022E02C0880F991F0A94D3
:101D5000E2F7809584238C9357C08B818130A1F466
:101D6000A5E3B0E0E5E3F0E08081482F8A81282FE9
:101D700030E081E090E0022E02C0880F991F0A94A3
:101D8000E2F7842B8C9340C0A5E3B0E0E5E3F0E0FC
:101D90008081482F8A81282F30E081E090E0022E58
:101DA00002C0880F991F0A94E2F7809584238C93D0
:101DB0002BC08B818130A1F4A2E3B0E0E2E3F0E03C
:101DC0008081482F8A81282F30E081E090E0022E28
:101DD00002C0880F991F0A94E2F7842B8C9314C0D9
:101DE000A2E3B0E0E2E3F0E08081482F8A81282F6F
:101DF00030E081E090E0022E02C0880F991F0A9423
:101E0000E2F7809584238C930F900F900F900F90A2
:101E10000F90CF91DF910895DF93CF9300D000D042
:101E20000F92CDB7DEB78A836B8319828A81282F00
:101E300030E03D832C834C815D814234510541F17A
:101E40008C819D818334910534F42C813D81213432
:101E5000310561F052C04C815D814334510551F12F
:101E60008C819D8184349105B9F147C0E9E3F0E0AC
:101E70008081282F30E08B81882F90E0A90102C05B
:101E8000559547958A95E2F7CA018170898335C0D7
:101E9000E6E3F0E08081282F30E08B81882F90E00E
:101EA000A90102C0559547958A95E2F7CA0181704C
:101EB000898323C0E3E3F0E08081282F30E08B8129
:101EC000882F90E0A90102C0559547958A95E2F7C1
:101ED000CA018170898311C0E0E3F0E08081282F7E
:101EE00030E08B81882F90E0A90102C0559547957D
:101EF0008A95E2F7CA018170898389810F900F90DA
:101F00000F900F900F90CF91DF910895DF93CF93B3
:101F100000D000D00F92CDB7DEB78A836B838A8161
:101F20006B810E940C0F89838981282F30E03D83CB
:101F30002C838C819D81009759F02C813D8121302B
:101F4000310559F48A816B8140E00E94280E05C05A
:101F50008A816B8141E00E94280E89818095898366
:101F600089810F900F900F900F900F90CF91DF917C
:101F70000895DF93CF9300D000D0CDB7DEB789832B
:101F80006A838981282F30E03C832B838B819C815D
:101F900082349105D9F02B813C812334310534F40E
:101FA0008B819C818134910561F01EC02B813C8125
:101FB0002334310581F08B819C818434910581F03B
:101FC00013C0EAE3F0E08A8180830EC0E7E3F0E02B
:101FD0008A81808309C0E4E3F0E08A81808304C0C1
:101FE000E1E3F0E08A8180830F900F900F900F90D3
:101FF000CF91DF910895DF93CF9300D000D0CDB77C
:10200000DEB789836A838981282F30E03C832B8364
:102010008B819C8182349105D9F02B813C812334C2
:10202000310534F48B819C818134910561F01EC0AF
:102030002B813C812334310581F08B819C81843458
:10204000910581F013C0EAE3F0E08A8180830EC03D
:10205000E7E3F0E08A81808309C0E4E3F0E08A816D
:10206000808304C0E1E3F0E08A8180830F900F90C9
:102070000F900F90CF91DF910895DF93CF93CDB75D
:10208000DEB780E060E00E94AD1381E060E00E9476
:10209000AD13CF91DF910895DF93CF93CDB7DEB726
:1020A000C756D0400FB6F894DEBF0FBECDBF1B821F
:1020B00082E3FE013496DF01982F1D929A95E9F78D
:1020C00082E3FE01F696DF01982F1D929A95E9F7BB
:1020D0001A82198200D0EDB7FEB7319680E690E003
:1020E000918380830E94110B0F900F901B822CC054
:1020F000CE0104960E94690BCE0104960E946614DC
:10210000813039F481E08A8380E060E00E94DD0A5A
:102110001EC000D0EDB7FEB7319683E790E0918303
:1021200080830E94110B0F900F9000D0EDB7FEB787
:10213000319685E890E0918380830E94110B0F9087
:102140000F908B818F5F8B838B81833088F28A81A4
:102150008130D1F500D0EDB7FEB7319681E990E03E
:10216000918380830E94110B0F900F901B8228C0D7
:10217000CE01C6960E94690BCE01C6960E949F149E
:10218000813019F481E0898323C000D0EDB7FEB718
:10219000319687EA90E0918380830E94110B0F9023
:1021A0000F9000D0EDB7FEB7319685E890E09183AF
:1021B00080830E94110B0F900F908B818F5F8B8318
:1021C0008B818330A8F204C080E061E00E94DD0AC8
:1021D0008981882321F480E061E00E94DD0A898101
:1021E000C959DF4F0FB6F894DEBF0FBECDBFCF91F8
:1021F000DF910895DF93CF93CDB7DEB72E970FB65B
:10220000F894DEBF0FBECDBF80E090E0A0E0B0E06C
:1022100089839A83AB83BC838AE0FE013596DF0114
:10222000982F1D929A95E9F70E94821A0E94711ABE
:10223000DC01CB0189839A83AB83BC8389819A813A
:10224000AB81BC819E012B5F3F4FBC01CD01A90139
:1022500022E00E946F1F00D000D0EDB7FEB731968C
:1022600088EB90E091838083CE01059693838283EF
:102270000E94110B0F900F900F900F902E960FB69B
:10228000F894DEBF0FBECDBFCF91DF910895DF93ED
:10229000CF93CDB7DEB760970FB6F894DEBF0FBE11
:1022A000CDBF188A1F86188A1F867DC08F859889A2
:1022B00060E00E94BF1980E090E0A8E4B2E48B8760
:1022C0009C87AD87BE876B857C858D859E8520E04C
:1022D00030E04AEF54E40E941F02DC01CB018F83FF
:1022E0009887A987BA876F81788589859A8520E044
:1022F00030E040E85FE30E94250488232CF481E06D
:1023000090E09E838D833FC06F81788589859A8513
:1023100020E03FEF4FE757E40E94C50318164CF545
:102320006B857C858D859E8520E030E040E251E420
:102330000E941F02DC01CB01BC01CD010E944900BB
:10234000DC01CB019E838D830FC088EC90E09C83E1
:102350008B838B819C810197F1F79C838B838D818B
:102360009E8101979E838D838D819E81009769F761
:1023700014C06F81788589859A850E944900DC01A7
:10238000CB019E838D838D819E819A8389838981F0
:102390009A810197F1F79A8389838F8598898C595F
:1023A0009F4F988B8F878F85988929E0843C92076F
:1023B00008F47CCF60960FB6F894DEBF0FBECDBF99
:1023C000CF91DF910895DF93CF93CDB7DEB76097BC
:1023D0000FB6F894DEBF0FBECDBF188A1F8684ECFF
:1023E00099E0988B8F877DC08F85988960E00E94E7
:1023F000BF1980E090E0A8E4B2E48B879C87AD87AA
:10240000BE876B857C858D859E8520E030E04AEF18
:1024100054E40E941F02DC01CB018F839887A987B7
:10242000BA876F81788589859A8520E030E040E819
:102430005FE30E94250488232CF481E090E09E83D2
:102440008D833FC06F81788589859A8520E03FEF35
:102450004FE757E40E94C50318164CF56B857C8541
:102460008D859E8520E030E040E251E40E941F020D
:10247000DC01CB01BC01CD010E944900DC01CB0194
:102480009E838D830FC088EC90E09C838B838B812F
:102490009C810197F1F79C838B838D819E810197AD
:1024A0009E838D838D819E81009769F714C06F8113
:1024B000788589859A850E944900DC01CB019E833D
:1024C0008D838D819E819A83898389819A810197E9
:1024D000F1F79A8389838F85988984569040988BE9
:1024E0008F878F859889009709F07ECF60960FB609
:1024F000F894DEBF0FBECDBFCF91DF910895DF937B
:10250000CF930F92CDB7DEB7898380E069810E94B7
:1025100007140F90CF91DF910895DF93CF93CDB73C
:10252000DEB700D0EDB7FEB731968DEC90E0918329
:1025300080830E94110B0F900F9000D0EDB7FEB773
:10254000319687EE90E0918380830E94110B0F906B
:102550000F9000D0EDB7FEB731968FEF90E09183EA
:1025600080830E94110B0F900F9000D0EDB7FEB743
:10257000319688E191E0918380830E94110B0F9046
:102580000F9000D0EDB7FEB7319683E391E09183D1
:1025900080830E94110B0F900F90CF91DF910895CF
:1025A000DF93CF9300D000D000D0CDB7DEB781E06D
:1025B00089831A820E948D12CE0102960E947B0BA3
:1025C0000E9466138A81282F30E03E832D838D81FF
:1025D0009E8181339105C1F02D813E8122333105E9
:1025E0003CF48D819E818033910509F457C058C019
:1025F0002D813E812233310599F18D819E81833376
:10260000910509F448C04CC080918904882379F46D
:1026100000D0EDB7FEB7319683E491E091838083DB
:102620000E94110B0F900F900E9447110EC000D016
:10263000EDB7FEB7319683E591E0918380830E94E8
:10264000110B0F900F900E94E311809189041C825E
:10265000882311F491E09C832C81209389042CC061
:1026600080918A041B82882311F431E03B838B81A3
:1026700080938A0480918A040E947F1200D0EDB773
:10268000FEB7319683E691E0918380830E94110B1F
:102690000F900F9011C00E94FA100EC019820CC04A
:1026A00000D0EDB7FEB7319685E791E09183808346
:1026B0000E94110B0F900F90898126960FB6F89407
:1026C000DEBF0FBECDBFCF91DF910895DF93CF93D3
:1026D000CDB7DEB70E9494130E94891322E08C3B91
:1026E000920728F481E061E00E94071404C081E0B1
:1026F00060E00E940714CF91DF910895DF93CF939C
:10270000CDB7DEB710928C0410928B04CF91DF917D
:102710000895DF93CF93CDB7DEB780918B0490916E
:102720008C04CF91DF910895DF93CF9300D0CDB784
:10273000DEB71A82198281E09E012F5F3F4FB901F7
:102740000E948B0989819A8190938C0480938B04D9
:102750000F900F90CF91DF910895DF93CF9300D02A
:102760000F92CDB7DEB789836A838981823010F0FA
:102770001B821DC08981882F90E0880F991FFC0162
:10278000E357FD4F20818981882F90E0880F991FA2
:10279000FC01E257FD4F9081822F692F41E00E949A
:1027A000440D89816A810E94071481E08B838B81AB
:1027B0000F900F900F90CF91DF910895DF93CF93FB
:1027C00000D00F92CDB7DEB78A838A81823010F0B5
:1027D0001B8216C019828A819E012F5F3F4FB9016B
:1027E0000E9434148981813029F48A8160E00E943A
:1027F000071404C08A8161E00E94071481E08B8382
:102800008B810F900F900F90CF91DF910895DF9300
:10281000CF9300D00F92CDB7DEB789836A838981C9
:10282000823010F01B8219C08981882F90E0880FB8
:10283000991FFC01E357FD4F20818981882F90E08B
:10284000880F991FFC01E257FD4F9081822F692F5D
:102850004A810E94280E81E08B838B810F900F901C
:102860000F90CF91DF910895DF93CF9300D000D0E8
:102870000F92CDB7DEB78A837C836B838A818230E7
:1028800010F01D821AC019828A81882F90E0880F6B
:10289000991FFC01E357FD4F20818A81882F90E02A
:1028A000880F991FFC01E257FD4F9081822F692FFD
:1028B0000E940C0F898381E08D838D810F900F9092
:1028C0000F900F900F90CF91DF910895DF93CF93EA
:1028D00000D000D0CDB7DEB79C838B831A821982DB
:1028E000198222C041E952E08981282F30E082E339
:1028F00090E0BC01269FC001279F900D369F900D50
:1029000011249A01280F391F8B819C81B9010E94E3
:102910009C21882331F4898180938D0481E08A830E
:1029200006C089818F5F898389818530D8F28A8149
:102930000F900F900F900F90CF91DF910895DF933C
:10294000CF9300D00F92CDB7DEB79B838A831982D5
:102950004BE853E080918D04282F30E082E390E033
:10296000BC01269FC001279F900D369F900D11241A
:102970009A01280F391F8A819B81B9010E949C21ED
:10298000882311F481E0898389810F900F900F9043
:10299000CF91DF910895DF93CF9300D000D000D086
:1029A000CDB7DEB79B838A831982EA81FB8182815E
:1029B000EA81FB819081692F0E9451168983EA8107
:1029C000FB818281282F30E03E832D838D819E8183
:1029D000009731F02D813E812130310539F00CC056
:1029E00084E465E041E00E94440D08C084E464E0B2
:1029F00041E00E94440D02C01C820EC0EA81FB81AE
:102A000081810E9419178983EA81FB8183810E9459
:102A10001615898339813C838C8126960FB6F894EC
:102A2000DEBF0FBECDBFCF91DF910895DF93CF936F
:102A300000D000D0CDB7DEB789838981282F30E060
:102A40003C832B838B819C818330910509F481C069
:102A50002B813C81243031058CF48B819C81813029
:102A6000910509F43EC02B813C81223031050CF0E8
:102A700054C08B819C810097D1F0EBC02B813C81AD
:102A80002530310509F49DC08B819C8185309105ED
:102A90000CF47BC02B813C812630310509F4ADC09C
:102AA0008B819C818730910509F4BDC0D2C0AEE412
:102AB000B0E0EEE4F0E080818E7F8C93AEE4B0E095
:102AC000EEE4F0E080818D7F8C93AEE4B0E0EEE444
:102AD000F0E080818B7F8C9310928F0410928E0493
:102AE000BAC0AEE4B0E0EEE4F0E0808181608C93A7
:102AF000AEE4B0E0EEE4F0E080818D7F8C93AEE454
:102B0000B0E0EEE4F0E080818B7F8C9381E090E098
:102B100090938F0480938E049EC0AEE4B0E0EEE408
:102B2000F0E080818E7F8C93AEE4B0E0EEE4F0E0E4
:102B3000808182608C93AEE4B0E0EEE4F0E08081CE
:102B40008B7F8C9388E090E090938F0480938E0429
:102B500082C0AEE4B0E0EEE4F0E0808181608C936E
:102B6000AEE4B0E0EEE4F0E0808182608C93AEE40D
:102B7000B0E0EEE4F0E080818B7F8C9380E490E025
:102B800090938F0480938E0466C0AEE4B0E0EEE4D0
:102B9000F0E080818E7F8C93AEE4B0E0EEE4F0E074
:102BA00080818D7F8C93AEE4B0E0EEE4F0E0808134
:102BB00084608C9380E091E090938F0480938E04E6
:102BC0004AC0AEE4B0E0EEE4F0E0808181608C9336
:102BD000AEE4B0E0EEE4F0E080818D7F8C93AEE473
:102BE000B0E0EEE4F0E0808184608C9380E094E0DB
:102BF00090938F0480938E042EC0AEE4B0E0EEE498
:102C0000F0E080818E7F8C93AEE4B0E0EEE4F0E003
:102C1000808182608C93AEE4B0E0EEE4F0E08081ED
:102C200084608C9318C0AEE4B0E0EEE4F0E0808104
:102C300081608C93AEE4B0E0EEE4F0E080818260ED
:102C40008C93AEE4B0E0EEE4F0E0808184608C939D
:102C500002C01A8202C091E09A838A810F900F907D
:102C60000F900F90CF91DF910895DF93CF93CDB761
:102C7000DEB7AEE4B0E0EEE4F0E080818E7F8C93CE
:102C8000AEE4B0E0EEE4F0E080818D7F8C93AEE4C2
:102C9000B0E0EEE4F0E080818B7F8C93CF91DF9108
:102CA0000895DF93CF9300D000D00F92CDB7DEB759
:102CB00089836A838A81282F30E03D832C838C812D
:102CC0009D8181309105E1F12C813D8122303105DA
:102CD0002CF48C819D81009771F09EC02C813D81E8
:102CE0002230310509F451C08C819D8183309105DA
:102CF00009F46FC091C08981882379F4AFE4B0E012
:102D0000EFE4F0E080818F778C93AFE4B0E0EFE404
:102D1000F0E080818F7B8C9381C08981813009F0C4
:102D20007DC0AFE4B0E0EFE4F0E080818F7D8C9374
:102D3000AFE4B0E0EFE4F0E080818F7E8C936EC072
:102D40008981882379F4AFE4B0E0EFE4F0E080819A
:102D50008F778C93AFE4B0E0EFE4F0E080818064A3
:102D60008C935CC08981813009F058C0AFE4B0E039
:102D7000EFE4F0E080818F7D8C93AFE4B0E0EFE48E
:102D8000F0E0808180618C9349C08981882379F447
:102D9000AFE4B0E0EFE4F0E0808180688C93AFE4D2
:102DA000B0E0EFE4F0E080818F7B8C9337C08981C5
:102DB0008130A1F5AFE4B0E0EFE4F0E08081806223
:102DC0008C93AFE4B0E0EFE4F0E080818F7E8C93F1
:102DD00025C08981882371F4AFE4B0E0EFE4F0E02E
:102DE000808180688C93AFE4B0E0EFE4F0E0808114
:102DF00080648C938981813089F4AFE4B0E0EFE4A2
:102E0000F0E0808180628C93AFE4B0E0EFE4F0E02A
:102E1000808180618C9302C01B8202C091E09B8301
:102E20008B810F900F900F900F900F90CF91DF91AB
:102E30000895DF93CF9300D000D0CDB7DEB789835C
:102E40008981282F30E03C832B838B819C818530C6
:102E5000910509F4E5C02B813C812630310524F52C
:102E60008B819C818230910509F483C02B813C8148
:102E70002330310564F48B819C81009709F43FC0B5
:102E80002B813C812130310509F456C094C18B81DE
:102E90009C818330910509F489C02B813C812430C9
:102EA000310509F4A0C087C18B819C8188309105D0
:102EB00009F40DC12B813C81293031056CF48B81E3
:102EC0009C818630910509F4C8C02B813C81273054
:102ED000310509F4DFC06FC18B819C818A30910577
:102EE00009F42FC12B813C812A3031050CF40CC12F
:102EF0008B819C818B30910509F440C15CC1AFE4AA
:102F0000B0E0EFE4F0E0808181608C93AFE4B0E06A
:102F1000EFE4F0E080818D7F8C93AEE4B0E0EEE4EE
:102F2000F0E08081877F8C93AEE4B0E0EEE4F0E0E7
:102F300080818F7E8C9341C1AFE4B0E0EFE4F0E09C
:102F400080818E7F8C93AFE4B0E0EFE4F0E080818D
:102F500082608C93AEE4B0E0EEE4F0E08081877FA5
:102F60008C93AEE4B0E0EEE4F0E080818F7E8C9351
:102F700024C1AFE4B0E0EFE4F0E0808181608C93A5
:102F8000AFE4B0E0EFE4F0E0808182608C93AEE4E7
:102F9000B0E0EEE4F0E08081877F8C93AEE4B0E0B7
:102FA000EEE4F0E080818F7E8C9307C1AFE4B0E067
:102FB000EFE4F0E0808181608C93AFE4B0E0EFE477
:102FC000F0E080818D7F8C93AEE4B0E0EEE4F0E041
:102FD000808188608C93AEE4B0E0EEE4F0E0808124
:102FE0008F7E8C93EAC0AFE4B0E0EFE4F0E0808144
:102FF0008E7F8C93AFE4B0E0EFE4F0E080818260FC
:103000008C93AEE4B0E0EEE4F0E0808188608C93D5
:10301000AEE4B0E0EEE4F0E080818F7E8C93CDC032
:10302000AFE4B0E0EFE4F0E0808181608C93AFE446
:10303000B0E0EFE4F0E0808182608C93AEE4B0E039
:10304000EEE4F0E0808188608C93AEE4B0E0EEE4E2
:10305000F0E080818F7E8C93B0C0AFE4B0E0EFE40D
:10306000F0E080818E7F8C93AFE4B0E0EFE4F0E09D
:1030700080818D7F8C93AEE4B0E0EEE4F0E080815F
:10308000877F8C93AEE4B0E0EEE4F0E08081806175
:103090008C9393C0AFE4B0E0EFE4F0E08081816016
:1030A0008C93AFE4B0E0EFE4F0E080818D7F8C930F
:1030B000AEE4B0E0EEE4F0E08081877F8C93AEE494
:1030C000B0E0EEE4F0E0808180618C9376C0AFE404
:1030D000B0E0EFE4F0E080818E7F8C93AFE4B0E06D
:1030E000EFE4F0E0808182608C93AEE4B0E0EEE447
:1030F000F0E08081877F8C93AEE4B0E0EEE4F0E016
:10310000808180618C9359C0AFE4B0E0EFE4F0E0DF
:10311000808181608C93AFE4B0E0EFE4F0E08081E7
:1031200082608C93AEE4B0E0EEE4F0E08081877FD3
:103130008C93AEE4B0E0EEE4F0E0808180618C93AB
:103140003CC0AFE4B0E0EFE4F0E080818E7F8C9390
:10315000AFE4B0E0EFE4F0E0808182608C93AEE415
:10316000B0E0EEE4F0E0808188608C93AEE4B0E003
:10317000EEE4F0E0808180618C931FC0AFE4B0E0AA
:10318000EFE4F0E0808181608C93AFE4B0E0EFE4A5
:10319000F0E0808182608C93AFE4B0E0EFE4F0E097
:1031A000808188608C93AFE4B0E0EFE4F0E0808150
:1031B00080618C9302C01A8202C091E09A838A8156
:1031C0000F900F900F900F90CF91DF910895DF93A4
:1031D000CF93CDB7DEB72A970FB6F894DEBF0FBEF8
:1031E000CDBF8B834C835D836E837F836C817D81B8
:1031F0008E819F8120E030E048EC52E40E94190368
:10320000DC01CB018C839D83AE83BF83E6E4F0E0D9
:1032100080819181CC01A0E0B0E0BC01CD010E9491
:103220000705DC01CB01BC01CD012C813D814E8124
:103230005F810E941F02DC01CB01BC01CD010E9415
:103240004900DC01CB019A8389838B81282F30E0F0
:103250003A87298789859A85009731F029853A85AB
:103260002130310541F00EC0EAE4F0E089819A8115
:103270009183808309C0E8E4F0E089819A81918399
:10328000808302C0188602C031E0388788852A967C
:103290000FB6F894DEBF0FBECDBFCF91DF9108957A
:1032A0000F931F93DF93CF9300D0CDB7DEB79A83F0
:1032B000898306E410E020918E0430918F04898187
:1032C0009A81AC01249FC001259F900D349F900DE1
:1032D00011249C0140E050E080E092E1AAE7B0E0D8
:1032E000BC01CD010E943E22DA01C9010197F8011B
:1032F0009183808389819A81909391048093900433
:103300000F900F90CF91DF911F910F9108950F9320
:103310001F93DF93CF9300D0CDB7DEB79A83898315
:1033200006E410E020918E0430918F0489819A8107
:10333000AC01249FC001259F900D349F900D112456
:10334000880F991F9C0140E050E080E092E1AAE7DD
:10335000B0E0BC01CD010E943E22DA01C901F801B2
:103360009183808389819A819093910480939004C2
:103370000F900F90CF91DF911F910F910895EF92D1
:10338000FF920F931F93DF93CF93CDB7DEB72897AC
:103390000FB6F894DEBF0FBECDBF9C838B836D83C9
:1033A0008B819C817C0100E010E080918E049091E3
:1033B0008F04CC01A0E0B0E020E432E44FE050E024
:1033C000BC01CD010E941F22DC01CB0120E032E1D3
:1033D0004AE750E0BC01CD010E943E22DA01C9015A
:1033E0009C01AD01C801B7010E943E22DA01C9016A
:1033F0009A8389838D81282F30E038872F838F81AE
:103400009885009731F02F8138852130310541F0C2
:103410000EC0EAE4F0E089819A819183808309C03B
:10342000E8E4F0E089819A819183808302C01E8262
:1034300002C031E03E838E8128960FB6F894DEBF3D
:103440000FBECDBFCF91DF911F910F91FF90EF90F5
:103450000895DF93CF9300D000D000D0CDB7DEB772
:1034600089837B836A838981282F30E03E832D8383
:103470008D819E81009731F02D813E812130310573
:1034800041F00EC0EAE4F0E08A819B819183808361
:1034900009C0E8E4F0E08A819B819183808302C0C7
:1034A0001C8202C031E03C838C8126960FB6F894D2
:1034B000DEBF0FBECDBFCF91DF910895DF93CF93D5
:1034C000CDB7DEB780E090E0A0E0B0E0809392045A
:1034D00090939304A0939404B0939504CF91DF91BB
:1034E0000895DF93CF93CDB7DEB78091920490918A
:1034F0009304A0919404B0919504BC01CD01CF91A7
:10350000DF910895DF93CF9300D000D000D0CDB7E6
:10351000DEB71E821D8280E090E0A0E0B0E08983EB
:103520009A83AB83BC839E012B5F3F4F80E0B90140
:103530000E948B098D819E81CC01A0E0B0E0BC018E
:10354000CD010E940705DC01CB01BC01CD012AE1C0
:1035500037E64CE950E40E941F02DC01CB0189836D
:103560009A83AB83BC8369817A818B819C8120E0C3
:1035700030E040E251E40E941903DC01CB01BC01C0
:10358000CD0120E030E040E050E40E941903DC016E
:10359000CB018093920490939304A0939404B093EE
:1035A000950426960FB6F894DEBF0FBECDBFCF911F
:1035B000DF910895DF93CF9300D000D0CDB7DEB771
:1035C0008A837C836B83A0E4B0E0E0E4F0E0808158
:1035D0008F778C93EB81FC819781EB81FC8120813B
:1035E00031818A81692FA9010E94381C8983A0E456
:1035F000B0E0E0E4F0E0808180688C93EB81FC81B6
:1036000095818A81692F0E942E1B8983EB81FC8121
:1036100094818A81692F0E94741B8983EB81FC81CC
:1036200093818A81692F0E94B31B8983EB81FC817E
:1036300092818A81692F0E94041D8983EB81FC811C
:1036400090858A81692F0E94881D898389810F90C6
:103650000F900F900F90CF91DF910895DF93CF934C
:1036600000D000D00F92CDB7DEB789836A838981FD
:10367000813081F5A0E4B0E0E0E4F0E08081806892
:103680008C938A81282F30E03D832C838C819D810F
:10369000009731F02C813D812130310549F010C077
:1036A000A0E4B0E0E0E4F0E08081877F8C930FC07D
:1036B000A0E4B0E0E0E4F0E0808188608C9307C093
:1036C000A0E4B0E0E0E4F0E08081877F8C9331E01B
:1036D0003B8301C01B828B810F900F900F900F9046
:1036E0000F90CF91DF910895DF93CF9300D000D05A
:1036F0000F92CDB7DEB789836A838981813049F51E
:103700008A81282F30E03D832C838C819D818130FC
:10371000910571F02C813D812230310571F08C8151
:103720009D81009779F4E0E4F0E080E880830EC0AA
:10373000E0E4F0E080E9808309C0E0E4F0E080EBC1
:10374000808304C0E0E4F0E080E8808391E09B8324
:1037500001C01B828B810F900F900F900F900F90E4
:10376000CF91DF910895DF93CF9300D000D00F92D7
:10377000CDB7DEB789836A838981813009F06EC055
:10378000A0E4B0E0E0E4F0E0808180688C938A817E
:10379000282F30E03D832C838C819D8182309105E0
:1037A00059F12C813D812330310554F48C819D8168
:1037B000009789F02C813D812130310589F040C08E
:1037C0008C819D818330910519F12C813D812430BC
:1037D000310551F135C0E0E4F0E080E880833BC082
:1037E000E0E4F0E082E88083AAE2B0E0EAE2F0E020
:1037F00080818B7F8C932FC0E0E4F0E084E88083AD
:10380000AAE2B0E0EAE2F0E080818B7F8C9323C0F3
:10381000E0E4F0E086E88083AAE2B0E0EAE2F0E0EB
:1038200080818B7F8C9317C0E0E4F0E086E8808392
:10383000AAE2B0E0EAE2F0E0808184608C930BC001
:10384000E0E4F0E086E88083AAE2B0E0EAE2F0E0BB
:1038500080818B7F8C9331E03B8301C01B828B8105
:103860000F900F900F900F900F90CF91DF910895D0
:10387000DF93CF93CDB7DEB729970FB6F894DEBFAD
:103880000FBECDBF8B836C835E834D831A821982FA
:103890008B81813009F0ADC08C81282F30E03987D1
:1038A000288788859985009731F0288539852130CA
:1038B0003105A1F169C08D819E81CC01A0E0B0E00D
:1038C000880F991FAA1FBB1F880F991FAA1FBB1F14
:1038D000880F991FAA1FBB1F880F991FAA1FBB1F04
:1038E0009C01AD01215030404040504080E092E1C9
:1038F000AAE7B0E0BC01CD010E943E22DA01C90175
:103900009A838983E9E2F0E089818083E0E4F0E052
:1039100089819A81892F9927808368C0ABE2B0E0C2
:10392000EBE2F0E0808182608C938D819E81CC01FE
:10393000A0E0B0E0880F991FAA1FBB1F880F991F36
:10394000AA1FBB1F880F991FAA1FBB1F9C01AD0197
:10395000215030404040504080E092E1AAE7B0E082
:10396000BC01CD010E943E22DA01C9019A838983FC
:10397000E9E2F0E089818083E0E4F0E089819A81E6
:10398000892F9927808332C08D819E81CC01A0E050
:10399000B0E0880F991FAA1FBB1F880F991FAA1F8D
:1039A000BB1F880F991FAA1FBB1F880F991FAA1F33
:1039B000BB1F9C01AD01215030404040504080E091
:1039C00092E1AAE7B0E0BC01CD010E943E22DA01FB
:1039D000C9019A838983E9E2F0E089818083E0E488
:1039E000F0E089819A81892F9927808331E03F8394
:1039F00001C01F828F8129960FB6F894DEBF0FBEDB
:103A0000CDBFCF91DF910895DF93CF9300D000D049
:103A10000F92CDB7DEB789836A838981813009F03F
:103A20006DC08A81282F30E03D832C838C819D815D
:103A30008230910509F43DC02C813D812330310550
:103A400054F48C819D810097B1F02C813D8121300F
:103A5000310501F14EC08C819D8184309105C9F101
:103A60002C813D812430310564F18C819D8185302C
:103A70009105B9F13EC0AAE2B0E0EAE2F0E080814F
:103A80008F778C93AAE2B0E0EAE2F0E080818F7B4E
:103A90008C9331C0AAE2B0E0EAE2F0E08081806875
:103AA0008C93AAE2B0E0EAE2F0E0808180648C933B
:103AB00022C0AAE2B0E0EAE2F0E0808180688C9364
:103AC0001AC0AAE2B0E0EAE2F0E080818F778C933E
:103AD00012C0AAE2B0E0EAE2F0E0808180648C9358
:103AE0000AC0AAE2B0E0EAE2F0E080818F7B8C932A
:103AF00002C01B8204C091E09B8301C01B828B81AA
:103B00000F900F900F900F900F90CF91DF9108952D
:103B1000DF93CF9300D000D00F92CDB7DEB789836B
:103B20006A838981813009F051C08A81282F30E071
:103B30003D832C838C819D8181309105C1F02C8146
:103B40003D812230310511F18C819D81009769F50D
:103B5000AAE2B0E0EAE2F0E0808188608C93AAE219
:103B6000B0E0EAE2F0E080818F7E8C932CC0AAE284
:103B7000B0E0EAE2F0E0808180618C93AAE2B0E0FC
:103B8000EAE2F0E08081877F8C931DC0AAE2B0E07A
:103B9000EAE2F0E0808180618C93AAE2B0E0EAE2A0
:103BA000F0E0808188608C930EC0AAE2B0E0EAE287
:103BB000F0E0808180618C93AAE2B0E0EAE2F0E07C
:103BC000808188608C9391E09B8302C021E02B83ED
:103BD0008B810F900F900F900F900F90CF91DF91EE
:103BE0000895DF93CF9300D00F92CDB7DEB78983CE
:103BF0006A838981813081F4EBE2F0E08081882F53
:103C000090E0807290700097B9F3ECE2F0E08A8166
:103C1000808381E08B8301C01B828B810F900F908A
:103C20000F90CF91DF910895DF93CF9300D000D014
:103C3000CDB7DEB789837B836A8389818130C9F4FC
:103C40000CC0EA81FB8190818981692F0E94F11D5E
:103C50008A819B8101969B838A83EA81FB81808193
:103C6000882379F7898160E00E94F11D81E08C83CF
:103C700001C01C828C810F900F900F900F90CF91FC
:103C8000DF910895DF93CF9300D000D0CDB7DEB79A
:103C900089837B836A838981813071F4EBE2F0E070
:103CA00080818823DCF7ECE2F0E08081EA81FB810F
:103CB000808381E08C8304C0EA81FB8110821C82B6
:103CC0008C810F900F900F900F90CF91DF910895FE
:103CD000DF93CF9300D000D00F92CDB7DEB78A83A9
:103CE0007C836B8319828A818130B1F48A819E0141
:103CF0002F5F3F4FB9010E94421E8981EB81FC81F9
:103D000080838B819C8101969C838B83898188230E
:103D100069F781E08D8301C01D828D810F900F9026
:103D20000F900F900F90CF91DF9108950F931F93F5
:103D3000DF93CF93CDB7DEB760970FB6F894DEBFB1
:103D40000FBECDBF6B877C878D879E87588B4F8733
:103D50001F82188619861A861B821C821D821E826B
:103D60001A8219828B859C85AD85BE85BB238CF418
:103D70008B859C85AD85BE85B095A09590958195E8
:103D80009F4FAF4FBF4F8B879C87AD87BE8781E02A
:103D90008A838B859C85AD85BE858B839C83AD8313
:103DA000BE831DC08B819C81AD81BE812AE030E045
:103DB00040E050E0BC01CD010E946022DA01C9015F
:103DC0008B839C83AD83BE838F819885A985BA85BB
:103DD0000196A11DB11D8F839887A987BA878B8112
:103DE0009C81AD81BE81181619061A061B06D4F2F5
:103DF0008A81813089F48F819885A985BA85019659
:103E0000A11DB11D8F839887A987BA87EF85F8898F
:103E10008DE2808381E089832F8138858F85988921
:103E2000FC01E20FF31F10828F819885A985BA8566
:103E30000197A109B1098F839887A987BA8735C0EF
:103E40002F8138858F8598898C01020F131F8B85F0
:103E50009C85AD85BE852AE030E040E050E0BC01A5
:103E6000CD010E946022DC01CB01805DF8018083DE
:103E70008F819885A985BA850197A109B1098F839A
:103E80009887A987BA878B859C85AD85BE852AE0F2
:103E900030E040E050E0BC01CD010E946022DA0138
:103EA000C9018B879C87AD87BE878981282F30E029
:103EB00040E050E08F819885A985BA8582179307E5
:103EC000A407B5070CF0BCCF60960FB6F894DEBF20
:103ED0000FBECDBFCF91DF911F910F9108950F932A
:103EE0001F93DF93CF93CDB7DEB76D970FB6F894DE
:103EF000DEBF0FBECDBF6F8B788F898F9A8F5C8F9F
:103F00004B8F2D8F1B8A1C8A1D8A1E8A1F86188A3A
:103F1000198A1A8A80E090E0A0E0B0E08B879C8745
:103F2000AD87BE871F82188619861A861B821C825F
:103F30001D821E821A8219826F89788D898D9A8DD1
:103F400020E030E040E050E00E94250488235CF44B
:103F50008F89988DA98DBA8DB0588F8B988FA98F26
:103F6000BA8F81E08A836F89788D898D9A8D0E94BE
:103F7000B304DC01CB018F839887A987BA876F8947
:103F8000788D898D9A8D0E94B304DC01CB018B83DF
:103F90009C83AD83BE838B819C81AD81BE81009764
:103FA000A105B10531F581E090E0A0E0B0E08B8B98
:103FB0009C8BAD8BBE8B26C08B819C81AD81BE81DD
:103FC0002AE030E040E050E0BC01CD010E946022D8
:103FD000DA01C9018B839C83AD83BE838B899C8965
:103FE000AD89BE890196A11DB11D8B8B9C8BAD8BBC
:103FF000BE8B8B819C81AD81BE81181619061A0675
:104000001B06D4F28A81813089F48B899C89AD8921
:10401000BE890196A11DB11D8B8B9C8BAD8BBE8B78
:10402000EB8DFC8D8DE2808381E089836F89788DB3
:10403000898D9A8D0E94B304DC01CB018B839C8314
:10404000AD83BE838B899C89AD89BE890196A11DF4
:10405000B11D8F87988BA98BBA8B2B893C898B8D4F
:104060009C8DFC01E20FF31F8EE280838B899C897B
:10407000AD89BE890197A109B1098B8B9C8BAD8B52
:10408000BE8B35C02B893C898B8D9C8D8C01020F9A
:10409000131F8B819C81AD81BE812AE030E040E01E
:1040A00050E0BC01CD010E946022DC01CB01805DAB
:1040B000F80180838B899C89AD89BE890197A1090C
:1040C000B1098B8B9C8BAD8BBE8B8B819C81AD8121
:1040D000BE812AE030E040E050E0BC01CD010E940A
:1040E0006022DA01C9018B839C83AD83BE83898101
:1040F000282F30E040E050E08B899C89AD89BE8953
:1041000082179307A407B5070CF0BCCF6F817885A1
:1041100089859A850E9455049B01AC016F89788D31
:10412000898D9A8D0E94C101DC01CB018B879C8710
:10413000AD87BE871B8A1C8A1D8A1E8A6B857C857B
:104140008D859E8520E030E040E050E00E94C50370
:1041500018160CF466C07BC06B857C858D859E85AA
:1041600020E030E040E251E40E941F02DC01CB017C
:104170008B879C87AD87BE872F8538898B8D9C8DDB
:104180008C01020F131F6B857C858D859E8520E039
:1041900030E040E452E40E94F201DC01CB01BC01BA
:1041A000CD010E944900DC01CB01F80180836B85C1
:1041B0007C858D859E850E94B304DC01CB018F83B5
:1041C0009887A987BA876F81788589859A850E94A3
:1041D00055049B01AC016B857C858D859E850E9475
:1041E000C101DC01CB018B879C87AD87BE878F85A2
:1041F0009889A989BA890196A11DB11D8F87988BCD
:10420000A98BBA8B8B899C89AD89BE890196A11D2A
:10421000B11D8B8B9C8BAD8BBE8B9B898D8D981725
:1042200068F46B857C858D859E8520E030E040E0DC
:1042300050E00E94C50318160CF48ECF8F85988924
:104240002B8D3C8DF901E80FF91F10820BC08F8573
:1042500098899C01215030408B8D9C8DFC01E20F90
:10426000F31F10826D960FB6F894DEBF0FBECDBF60
:10427000CF91DF911F910F910895DF93CF9300D0DD
:1042800000D0CDB7DEB79C838B831A8219821A8245
:1042900040C08A81282F30E08B819C81FC01E20F95
:1042A000F31F8081803291F526C08A81898318C0EE
:1042B0008981282F30E08B819C81DC01A20FB31F04
:1042C0008981882F90E09C012F5F3F4F8B819C81DB
:1042D000FC01E20FF31F80818C9389818F5F8983BA
:1042E0008981282F30E08B819C81FC01E20FF31F34
:1042F00080818823E9F68A81282F30E08B819C8198
:10430000FC01E20FF31F8081803279F28A818F5F96
:104310008A838A81282F30E08B819C81FC01E20F07
:10432000F31F8081882309F0B4CF0F900F900F9076
:104330000F90CF91DF910895DF93CF9300D000D0FD
:10434000CDB7DEB79A8389837C836B8312C0E98102
:10435000FA819081EB81FC818081981779F48981C1
:104360009A8101969A8389838B819C8101969C8393
:104370008B83E981FA818081882349F7E981FA8179
:104380009081EB81FC818081292F281B822F0F9047
:104390000F900F900F90CF91DF910895DF93CF93FF
:1043A000CDB7DEB765970FB6F894DEBF0FBECDBFB1
:1043B00080E895E29A83898383E08C831D821E8244
:1043C00082E08F8381E09E012F5F3F4FB9010E9401
:1043D000DA1A81E460E040E00E94440D1D8681E02D
:1043E000898B87E08B8781E08C871E8681E08F87B1
:1043F000188ACE010A960E9475078AE08B8B82E0AC
:104400008A8B1C8A84E08D8BCE0142960E94CB144D
:1044100082E390E00E9450190E945E1A0E947E136F
:1044200080E060E00E94A80A0E943D100E944C10AB
:104430008130E1F70E94D0128130E1F3F7CF629F23
:10444000D001739FF001829FE00DF11D649FE00D8C
:10445000F11D929FF00D839FF00D749FF00D659FED
:10446000F00D9927729FB00DE11DF91F639FB00DEC
:10447000E11DF91FBD01CF0111240895A1E21A2EFB
:10448000AA1BBB1BFD010DC0AA1FBB1FEE1FFF1FF8
:10449000A217B307E407F50720F0A21BB30BE40B48
:1044A000F50B661F771F881F991F1A9469F760958F
:1044B0007095809590959B01AC01BD01CF01089549
:1044C00097FB092E05260ED057FD04D0D7DF0AD062
:1044D000001C38F450954095309521953F4F4F4F33
:1044E0005F4F0895F6F790958095709561957F4F91
:1044F0008F4F9F4F08952F923F924F925F926F92EE
:104500007F928F929F92AF92BF92CF92DF92EF9263
:10451000FF920F931F93CF93DF93CDB7DEB7CA1BE4
:10452000DB0B0FB6F894DEBF0FBECDBF09942A880F
:10453000398848885F846E847D848C849B84AA84B7
:10454000B984C884DF80EE80FD800C811B81AA8144
:10455000B981CE0FD11D0FB6F894DEBF0FBECDBF0F
:10456000ED010895FC0101900020E9F780959095F8
:104570008E0F9F1F0895AEE0B0E0E1ECF2E20C94E4
:1045800089228C0186E08C831A8309838FEF9FE751
:104590009E838D83CE0101960E94D722EF81F885FC
:1045A000E00FF11F10822E96E4E00C94A522ABE000
:1045B000B0E0EDEDF2E20C947B223C012B015A01BC
:1045C000FC0117821682838181FD03C06FEF7FEFAC
:1045D000C6C19AE0892E1E010894211C311CF301EA
:1045E0002381F20123FD859123FF81912F018823EF
:1045F00009F4B2C1853239F423FD859123FF8191FD
:104600002F01853229F490E0B3010E94CA24E7CF3C
:10461000982FFF24EE249924FFE1FF15D0F09B3260
:1046200069F09C3228F4903259F0933291F40EC024
:104630009D3249F0903369F441E024C052E0F52AFC
:1046400084E0F82A28C098E0F92A25C0E0E1FE2A93
:1046500022C0F7FC29C0892F80538A3070F4F6FEFF
:1046600005C0989C902C1124980E15C0E89CE02C55
:104670001124E80EF0E2FF2A0EC09E3229F4F6FC67
:104680006BC140E4F42A07C09C3619F450E8F52ABF
:1046900002C0983649F4F20123FD959123FF9191D0
:1046A0002F01992309F0B8CF892F8554833018F052
:1046B0008052833038F444E050E0A40EB51E5FE32E
:1046C00059830FC0933631F0933779F0933509F061
:1046D00056C020C0F5018081898342E050E0A40EDD
:1046E000B51E610101E010E012C0F501C080D1806B
:1046F000F6FC03C06FEF7FEF02C0692D70E042E06F
:1047000050E0A40EB51EC6010E94BF248C015FE7D5
:10471000F52214C0F501C080D180F6FC03C06FEF14
:104720007FEF02C0692D70E042E050E0A40EB51E9C
:10473000C6010E94B4248C0150E8F52AF3FE07C09C
:104740001AC080E290E0B3010E94CA24EA948E2D40
:1047500090E008171907A8F30EC0F601F7FC859141
:10476000F7FE81916F0190E0B3010E94CA24E1102D
:10477000EA94015010400115110579F7EAC094360A
:1047800011F0993669F5F7FE08C0F50120813181F5
:104790004281538184E090E00AC0F50180819181DB
:1047A0009C01442737FD4095542F82E090E0A80EED
:1047B000B91E9FE6F92257FF09C0509540953095E4
:1047C00021953F4F4F4F5F4FE0E8FE2ACA01B901E4
:1047D000A1012AE030E00E94F624D82ED21840C071
:1047E000953729F41F2D1F7E2AE030E01DC01F2DB4
:1047F000197F9F3661F0903720F4983509F0ACC0EE
:104800000FC0903739F0983709F0A6C004C028E0EF
:1048100030E00AC0106114FD146020E130E004C0F3
:1048200014FD166020E132E017FF08C0F501608139
:1048300071818281938144E050E008C0F50180815C
:104840009181BC0180E090E042E050E0A40EB51EF2
:10485000A1010E94F624D82ED2188FE7F82EF1225B
:10486000F6FE0BC05EEFF522D91438F4F4FE07C053
:10487000F2FC05C08FEEF82202C01D2D01C0192DDB
:10488000F4FE0DC0FE01ED0DF11D8081803319F4A1
:1048900099EEF92208C01F5FF2FE05C003C08F2DFC
:1048A000867809F01F5F0F2DF3FC14C0F0FE0FC0D7
:1048B0001E1510F09D2C0BC09D2C9E0C911A1E2DC8
:1048C00006C080E290E0B3010E94CA241F5F1E155B
:1048D000C0F304C01E1510F4E11A01C0EE2404FF59
:1048E0000FC080E390E0B3010E94CA2402FF1DC004
:1048F00001FD03C088E790E00EC088E590E00BC0A2
:10490000802F867891F001FF02C08BE201C080E227
:10491000F7FC8DE290E0B3010E94CA2406C080E358
:1049200090E0B3010E94CA249A94D914C0F3DA9497
:10493000F101ED0DF11D808190E0B3010E94CA24C8
:10494000DD20A9F706C080E290E0B3010E94CA24EE
:10495000EA94EE20C1F743CEF30166817781CB0163
:104960002B96E2E10C949722FC0105906150704077
:104970000110D8F7809590958E0F9F1F0895FC0128
:104980006150704001900110D8F7809590958E0F7E
:104990009F1F08950F931F93CF93DF938C01EB011B
:1049A0008B8181FF1BC082FF0DC02E813F818C81D6
:1049B0009D812817390764F4E881F9810193F9830F
:1049C000E88306C0E885F985802F0995892B31F4A5
:1049D0008E819F8101969F838E8302C00FEF1FEF10
:1049E000C801DF91CF911F910F910895FA01AA2775
:1049F000283051F1203181F1E8946F936E7F6E5F22
:104A00007F4F8F4F9F4FAF4FB1E03ED0B4E03CD0CF
:104A1000670F781F891F9A1FA11D680F791F8A1FB2
:104A2000911DA11D6A0F711D811D911DA11D20D019
:104A300009F468943F912AE0269F11243019305DD3
:104A40003193DEF6CF010895462F4770405D4193C4
:104A5000B3E00FD0C9F7F6CF462F4F70405D4A3311
:104A600018F0495D31FD4052419302D0A9F7EACFD9
:104A7000B4E0A6959795879577956795BA95C9F708
:104A800000976105710508959B01AC010A2E0694FB
:104A90005795479537952795BA95C9F7620F731FB4
:0C4AA000841F951FA01D0895F894FFCFFF
:104AAC00456E7465722075736572206E616D65203C
:104ABC000D0A0057726F6E672075736572206E61F8
:104ACC006D650D0A0054727920616761696E0D0A7B
:104ADC0000456E7465722075736572207061737316
:104AEC00776F72640D0A0057726F6E672070617376
:104AFC0073776F72640D0A0054656D706572617422
:104B0C00757265206973202573200D0A0057656C3A
:104B1C00636F6D652C2043686F6F7365206F7074C5
:104B2C00696F6E200D0A00312D204F70656E2026A6
:104B3C0020436C6F736520646F6F72200D0A003216
:104B4C002D204F70656E202620436C6F7365206C92
:104B5C0069676874200D0A00332D20476574207432
:104B6C0068652063757272656E742074656D702053
:104B7C000D0A00302D2045786974206D656E752006
:104B8C000D0A004F70656E696E6720646F6F72203E
:104B9C000D0A00436C6F73696E6720646F6F72202F
:104BAC000D0A00546F67676C696E67206C696768E3
:104BBC0074200D0A0057726F6E672063686F69630B
:104BCC0065200D0A0000000000000000000001023A
:104BDC00020303030304040404040404040505058C
:104BEC000505050505050505050505050506060666
:104BFC000606060606060606060606060606060649
:104C0C000606060606060606060606060607070735
:104C1C000707070707070707070707070707070718
:104C2C000707070707070707070707070707070708
:104C3C0007070707070707070707070707070707F8
:104C4C0007070707070707070707070707080808E5
:104C5C0008080808080808080808080808080808C8
:104C6C0008080808080808080808080808080808B8
:104C7C0008080808080808080808080808080808A8
:104C8C000808080808080808080808080808080898
:104C9C000808080808080808080808080808080888
:104CAC000808080808080808080808080808080878
:104CBC000808080808080808080808080808080868
:104CCC0008080808080808080808080808410341EB
:104CDC000745736C616D204568616200000000003F
:104CEC0000000000000000000000000000000000B8
:104CFC0000000000000000000000000000000000A8
:104D0C0000000041646D696E0000000000000000AE
:104D1C000000000000000000000000000000000087
:104D2C000000000000000000000000000000000077
:104D3C0000000000005573657200000000000000C8
:104D4C000000000000000000000000000000000057
:104D5C000000000000000000000000000000000047
:104D6C000000000000000000000000000000000037
:104D7C000000000000000000000000000000000027
:104D8C000000000000000000000000000000000017
:104D9C000000000000000000000000000000000007
:104DAC0000000000000000000000000000000000F7
:104DBC0000000000000000000000000000000000E7
:104DCC0000000000000000000000003132333435D8
:104DDC0000000000000000000000000000000000C7
:104DEC0000000000000000000000000000000000B7
:104DFC000000000000000000000000000030303017
:104E0C003030000000000000000000000000000036
:104E1C000000000000000000000000000000000086
:104E2C000000000000000000000000000000003541
:104E3C003535353500000000000000000000000092
:104E4C000000000000000000000000000000000056
:104E5C000000000000000000000000000000000046
:104E6C000000000000000000000000000000000036
:104E7C000000000000000000000000000000000026
:104E8C000000000000000000000000000000000016
:104E9C000000000000000000000000000000000006
:104EAC0000000000000000000000000000000000F6
:104EBC0000000000000000000000000000000000E6
:064ECC00000000000000E0
:00000001FF
